:020000040800F2
:1000000000500020851C00086119000863190008D1
:100010006519000867190008691900080000000048
:100020000000000000000000000000006B19000844
:100030006D190008000000006F1900087119000810
:10004000CD1C0008CD1C0008CD1C0008CD1C0008EC
:10005000CD1C0008CD1C0008CD1C0008CD1C0008DC
:10006000CD1C0008CD1C0008CD1C00087919000823
:10007000CD1C0008CD1C0008CD1C0008CD1C0008BC
:10008000CD1C0008CD1C0008CD1C0008CD1C0008AC
:10009000CD1C0008CD1C0008CD1C0008CD1C00089C
:1000A000CD1C0008CD1C0008CD1C0008CD1C00088C
:1000B000CD1C0008CD1C0008CD1C0008CD1C00087C
:1000C000CD1C0008CD1C0008CD1C0008CD1C00086C
:1000D000CD1C0008CD1C0008CD1C0008CD1C00085C
:1000E000CD1C0008CD1C0008CD1C0008000000003D
:1000F0000000000000000000000000000000000000
:0C01000000000000000000005FF808F1A3
:1001100010B5054C237833B9044B13B10448AFF341
:1001200000800123237010BDB809002000000000EA
:100130007CBE000808B5034B1BB103490348AFF36D
:10014000008008BD00000000BC0900207CBE000843
:1001500081F0004102E000BF83F0004330B54FEA78
:1001600041044FEA430594EA050F08BF90EA020FE5
:100170001FBF54EA000C55EA020C7FEA645C7FEA78
:10018000655C00F0E2804FEA5454D4EB5555B8BF9B
:100190006D420CDD2C4480EA020281EA030382EA0C
:1001A000000083EA010180EA020281EA0303362D9E
:1001B00088BF30BD11F0004F4FEA01314FF4801C71
:1001C0004CEA113102D0404261EB410113F0004F83
:1001D0004FEA03334CEA133302D0524263EB43033A
:1001E00094EA050F00F0A780A4F10104D5F1200ED8
:1001F0000DDB02FA0EFC22FA05F2801841F1000133
:1002000003FA0EF2801843FA05F359410EE0A5F106
:1002100020050EF1200E012A03FA0EFC28BF4CF037
:10022000020C43FA05F3C01851EBE37101F00045ED
:1002300007D54FF0000EDCF1000C7EEB00006EEBFA
:100240000101B1F5801F1BD3B1F5001F0CD3490884
:100250005FEA30004FEA3C0C04F101044FEA4452DB
:1002600012F5800F80F09A80BCF1004F08BF5FEA62
:10027000500C50F1000041EB045141EA050130BD42
:100280005FEA4C0C404141EB0101013C28BFB1F554
:10029000801FE9D291F0000F04BF01460020B1FA9F
:1002A00081F308BF2033A3F10B03B3F120020CDA72
:1002B0000C3208DD02F1140CC2F10C0201FA0CF050
:1002C00021FA02F10CE002F11402D8BFC2F1200CB5
:1002D00001FA02F120FA0CFCDCBF41EA0C0190406B
:1002E000E41AA2BF01EB0451294330BD6FEA0404B4
:1002F0001F3C1CDA0C340EDC04F11404C4F120029F
:1003000020FA04F001FA02F340EA030021FA04F3B0
:1003100045EA030130BDC4F10C04C4F1200220FA07
:1003200002F001FA04F340EA0300294630BD21FA45
:1003300004F0294630BD94F0000F83F4801306BF0B
:1003400081F480110134013D4EE77FEA645C18BFFF
:100350007FEA655C29D094EA050F08BF90EA020F96
:1003600005D054EA000C04BF1946104630BD91EA8E
:10037000030F1EBF0021002030BD5FEA545C05D191
:100380004000494128BF41F0004130BD14F58004D0
:100390003CBF01F5801130BD01F0004545F0FE4144
:1003A00041F470014FF0000030BD7FEA645C1ABF79
:1003B000194610467FEA655C1CBF0B46024650EAB0
:1003C000013406BF52EA033591EA030F41F40021DC
:1003D00030BD00BF90F0000F04BF0021704730B562
:1003E0004FF4806404F132044FF000054FF0000137
:1003F00050E700BF90F0000F04BF0021704730B5F8
:100400004FF4806404F1320410F0004548BF4042CC
:100410004FF000013EE700BF42004FEAE2014FEA21
:1004200031014FEA02701FBF12F07F4393F07F4FFC
:1004300081F06051704732F07F4208BF704793F0FF
:100440007F4F04BF41F40021704730B54FF4607412
:1004500001F0004521F000411CE700BF50EA010215
:1004600008BF704730B54FF000050AE050EA0102BE
:1004700008BF704730B511F0004502D5404261EB2E
:1004800041014FF4806404F132045FEA915C3FF46F
:10049000D8AE4FF003025FEADC0C18BF03325FEA0C
:1004A000DC0C18BF033202EBDC02C2F1200300FABD
:1004B00003FC20FA02F001FA03FE40EA0E0021FAE2
:1004C00002F11444BDE600BF4FEA4102B2F1E0433D
:1004D00024BFB3F5001CDCF1FE5C0DD901F0004C2B
:1004E0004FEAC0024CEA5070B2F1004F40EB83007B
:1004F00008BF20F00100704711F0804F21D113F1A7
:100500003872BCBF01F00040704741F480114FEADF
:100510005252C2F11802C2F1200C10FA0CF320FA68
:1005200002F018BF40F001004FEAC1234FEAD32385
:1005300003FA0CFC40EA0C0023FA02F34FEA4303EF
:10054000CCE77FEA625307D150EA01331EBF4FF078
:10055000FE4040F44000704701F0004040F0FE4093
:1005600040F40000704700BF80F0004002E000BF90
:1005700081F0004142001FBF5FEA410392EA030F8E
:100580007FEA226C7FEA236C6AD04FEA1262D2EBD8
:100590001363C1BFD218414048404140B8BF5B42DD
:1005A000192B88BF704710F0004F40F4000020F076
:1005B0007F4018BF404211F0004F41F4000121F08C
:1005C0007F4118BF494292EA030F3FD0A2F10102D6
:1005D00041FA03FC10EB0C00C3F1200301FA03F114
:1005E00000F0004302D5494260EB4000B0F5000F37
:1005F00013D3B0F1807F06D340084FEA310102F1F6
:100600000102FE2A51D2B1F1004F40EBC25008BFA7
:1006100020F0010040EA03007047490040EB000071
:10062000013A28BFB0F5000FEDD2B0FA80FCACF172
:10063000080CB2EB0C0200FA0CF0AABF00EBC2509F
:1006400052421843BCBFD0401843704792F0000F8D
:1006500081F4000106BF80F400000132013BB5E7E0
:100660004FEA41037FEA226C18BF7FEA236C21D056
:1006700092EA030F04D092F0000F08BF08467047BB
:1006800090EA010F1CBF0020704712F07F4F04D189
:10069000400028BF40F00040704712F100723CBF9C
:1006A00000F50000704700F0004343F0FE4040F4C6
:1006B000000070477FEA226216BF08467FEA236384
:1006C0000146420206BF5FEA412390EA010F40F46F
:1006D000800070474FF0000304E000BF10F00043BB
:1006E00048BF40425FEA000C08BF704743F09643A2
:1006F00001464FF000001CE050EA010208BF7047BD
:100700004FF000030AE000BF50EA010208BF704743
:1007100011F0004302D5404261EB41015FEA010C58
:1007200002BF84460146002043F0B64308BFA3F150
:100730008053A3F50003BCFA8CF2083AA3EBC25332
:1007400010DB01FA02FC634400FA02FCC2F1200251
:10075000BCF1004F20FA02F243EB020008BF20F088
:100760000100704702F1200201FA02FCC2F12002EE
:1007700050EA4C0021FA02F243EB020008BF20EAE3
:10078000DC7070474FF0FF0C1CEAD0521EBF1CEA11
:10079000D15392EA0C0F93EA0C0F6FD01A4480EAFF
:1007A000010C400218BF5FEA41211ED04FF00063E8
:1007B00043EA501043EA5111A0FB01310CF0004014
:1007C000B1F5000F3EBF490041EAD3715B0040EA3A
:1007D000010062F17F02FD2A1DD8B3F1004F40EB0A
:1007E000C25008BF20F00100704790F0000F0CF0DD
:1007F000004C08BF49024CEA502040EA51207F3AA1
:10080000C2BFD2F1FF0340EAC250704740F400007B
:100810004FF00003013A5DDC12F1190FDCBF00F06C
:1008200000407047C2F10002410021FA02F1C2F11A
:10083000200200FA02FC5FEA310040F1000053EAB6
:100840004C0308BF20EADC70704792F0000F00F004
:10085000004C02BF400010F4000F013AF9D040EA0A
:100860000C0093F0000F01F0004C02BF490011F49E
:10087000000F013BF9D041EA0C018FE70CEAD1539C
:1008800092EA0C0F18BF93EA0C0F0AD030F0004C1C
:1008900018BF31F0004CD8D180EA010000F00040D0
:1008A000704790F0000F17BF90F0004F084691F08E
:1008B000000F91F0004F14D092EA0C0F01D14202C8
:1008C0000FD193EA0C0F03D14B0218BF084608D191
:1008D00080EA010000F0004040F0FE4040F40000DB
:1008E000704740F0FE4040F4400070474FF0FF0C6E
:1008F0001CEAD0521EBF1CEAD15392EA0C0F93EAB5
:100900000C0F69D0A2EB030280EA010C49024FEA06
:10091000402037D04FF0805343EA111143EA1013BF
:100920000CF000408B4238BF5B0042F17D024FF477
:10093000000C8B4224BF5B1A40EA0C00B3EB510F52
:1009400024BFA3EB510340EA5C00B3EB910F24BF3B
:10095000A3EB910340EA9C00B3EBD10F24BFA3EBC0
:10096000D10340EADC001B0118BF5FEA1C1CE0D188
:10097000FD2A3FF650AF8B4240EBC25008BF20F03B
:10098000010070470CF0004C4CEA50207F32C2BF8F
:10099000D2F1FF0340EAC250704740F400004FF02C
:1009A0000003013A37E792F0000F00F0004C02BF5D
:1009B000400010F4000F013AF9D040EA0C0093F027
:1009C000000F01F0004C02BF490011F4000F013B81
:1009D000F9D041EA0C0195E70CEAD15392EA0C0FE9
:1009E00008D142027FF47DAF93EA0C0F7FF470AF21
:1009F000084676E793EA0C0F04D14B023FF44CAF64
:100A000008466EE730F0004C18BF31F0004CCAD1F8
:100A100030F000427FF45CAF31F000437FF43CAF34
:100A20005FE700BF4FF0FF3C06E000BF4FF0010C56
:100A300002E000BF4FF0010C4DF804CD4FEA400238
:100A40004FEA41037FEA226C18BF7FEA236C11D082
:100A500001B052EA530C18BF90EA010F58BFB2EB35
:100A6000030088BFC81738BF6FEAE17018BF40F0B5
:100A7000010070477FEA226C02D15FEA402C05D169
:100A80007FEA236CE4D15FEA412CE1D05DF8040BEE
:100A9000704700BF844608466146FFE70FB5FFF781
:100AA000C9FF002848BF10F1000F0FBD4DF808ED39
:100AB000FFF7F4FF0CBF012000205DF808FB00BF2A
:100AC0004DF808EDFFF7EAFF34BF012000205DF884
:100AD00008FB00BF4DF808EDFFF7E0FF94BF0120D1
:100AE00000205DF808FB00BF4DF808EDFFF7D2FFCE
:100AF00094BF012000205DF808FB00BF4DF808ED11
:100B0000FFF7C8FF34BF012000205DF808FB00BFDD
:100B100042000ED2B2F1FE4F0BD34FF09E03B3EB67
:100B2000126209D44FEA002343F0004323FA02F093
:100B300070474FF00000704712F1610F01D142027F
:100B400002D14FF0FF3070474FF00000704700BFF8
:100B5000844641EA000313F0030349D1403A23D30A
:100B60000B6803604B6843608B688360CB68C3602D
:100B70000B6903614B6943618B698361CB69C36115
:100B80000B6A03624B6A43628B6A8362CB6AC362FD
:100B90000B6B03634B6B43638B6B8363CB6BC363E5
:100BA00040304031403ADBD230320BD30B68036027
:100BB0004B6843608B688360CB68C3601030103132
:100BC000103AF3D20C3205D351F8043B40F8043B01
:100BD000043AF9D2043208D0D2071CBF11F8013B05
:100BE00000F8013B01D30B8803806046704700BFCB
:100BF000082A13D38B07B1D010F00303AED0C3F192
:100C00000403D21ADB071CBF11F8013B00F8013BBB
:100C1000A4D331F8023B20F8023B9FE7043AD9D332
:100C2000013A11F8013B00F8013BF9D20B7803704F
:100C30004B7843708B7883706046704770B54FF087
:100C4000FF0C4CF4E06C1CEA11541DBF1CEA135558
:100C500094EA0C0F95EA0C0F00F0DEF82C4481EAC0
:100C6000030621EA4C5123EA4C5350EA013518BFE0
:100C700052EA033541F4801143F4801338D0A0FBCD
:100C800002CE4FF00005E1FB02E506F00042E0FB7A
:100C900003E54FF00006E1FB03569CF0000F18BF80
:100CA0004EF0010EA4F1FF04B6F5007F64F5407428
:100CB00004D25FEA4E0E6D4146EB060642EAC621BB
:100CC00041EA55514FEAC52040EA5E504FEACE2E28
:100CD000B4F1FD0C88BFBCF5E06F1ED8BEF1004F2B
:100CE00008BF5FEA500E50F1000041EB045170BDA7
:100CF00006F0004646EA010140EA020081EA0301EB
:100D0000B4EB5C04C2BFD4EB0C0541EA045170BDE6
:100D100041F480114FF0000E013C00F3AB8014F160
:100D2000360FDEBF002001F0004170BDC4F10004A9
:100D3000203C35DA0C341BDC04F11404C4F120052A
:100D400000FA05F320FA04F001FA05F240EA020085
:100D500001F0004221F0004110EBD37021FA04F6BB
:100D600042EB06015EEA430E08BF20EAD37070BD75
:100D7000C4F10C04C4F1200500FA04F320FA05F0D4
:100D800001FA04F240EA020001F0004110EBD370D6
:100D900041F100015EEA430E08BF20EAD37070BD46
:100DA000C4F1200500FA05F24EEA020E20FA04F31F
:100DB00001FA05F243EA020321FA04F001F00041CE
:100DC00021FA04F220EA020000EBD3705EEA430E3F
:100DD00008BF20EAD37070BD94F0000F0FD101F06E
:100DE0000046400041EB010111F4801F08BF013CA7
:100DF000F7D041EA060195F0000F18BF704703F0E5
:100E00000046520043EB030313F4801F08BF013D6B
:100E1000F7D043EA0603704794EA0C0F0CEA135527
:100E200018BF95EA0C0F0CD050EA410618BF52EAE1
:100E30004306D1D181EA030101F000414FF00000E7
:100E400070BD50EA410606BF1046194652EA4306F5
:100E500019D094EA0C0F02D150EA013613D195EA69
:100E60000C0F05D152EA03361CBF104619460AD1B1
:100E700081EA030101F0004141F0FE4141F47001BB
:100E80004FF0000070BD41F0FE4141F4780170BDAB
:100E900070B54FF0FF0C4CF4E06C1CEA11541DBF10
:100EA0001CEA135594EA0C0F95EA0C0F00F0A7F812
:100EB000A4EB050481EA030E52EA03354FEA01313F
:100EC00000F088804FEA03334FF0805545EA131352
:100ED00043EA12634FEA022245EA111545EA10651A
:100EE0004FEA00260EF000419D4208BF964244F1B1
:100EF000FD0404F5407402D25B084FEA3202B61AD0
:100F000065EB03055B084FEA32024FF480104FF4A3
:100F1000002CB6EB020E75EB030E22BFB61A754617
:100F200040EA0C005B084FEA3202B6EB020E75EBAA
:100F3000030E22BFB61A754640EA5C005B084FEA12
:100F40003202B6EB020E75EB030E22BFB61A7546DF
:100F500040EA9C005B084FEA3202B6EB020E75EBEA
:100F6000030E22BFB61A754640EADC0055EA060EAB
:100F700018D04FEA051545EA16754FEA06164FEAEE
:100F8000C30343EA52734FEAC2025FEA1C1CC0D19A
:100F900011F4801F0BD141EA00014FF000004FF027
:100FA000004CB6E711F4801F04BF01430020B4F1E8
:100FB000FD0C88BFBCF5E06F3FF6AFAEB5EB030CA0
:100FC00004BFB6EB020C5FEA500C50F1000041EB9D
:100FD000045170BD0EF0004E4EEA113114EB5C046A
:100FE000C2BFD4EB0C0541EA045170BD41F480113D
:100FF0004FF0000E013C90E645EA060E8DE60CEA45
:10100000135594EA0C0F08BF95EA0C0F3FF43BAF61
:1010100094EA0C0F0AD150EA01347FF434AF95EA18
:101020000C0F7FF425AF104619462CE795EA0C0FFC
:1010300006D152EA03353FF4FDAE1046194622E7C9
:1010400050EA410618BF52EA43067FF4C5AE50EAA3
:1010500041047FF40DAF52EA43057FF4EBAE12E793
:101060004FF0FF3C06E000BF4FF0010C02E000BF74
:101070004FF0010C4DF804CD4FEA410C7FEA6C5C57
:101080004FEA430C18BF7FEA6C5C1BD001B050EAFA
:10109000410C0CBF52EA430C91EA030F02BF90EAE5
:1010A000020F0020704710F1000F91EA030F58BFA4
:1010B000994208BF90422CBFD8176FEAE37040F006
:1010C000010070474FEA410C7FEA6C5C02D150EAA4
:1010D000013C07D14FEA430C7FEA6C5CD6D152EA5F
:1010E000033CD3D05DF8040B704700BF8446104624
:1010F00062468C461946634600E000BF01B5FFF723
:10110000B7FF002848BF10F1000F01BD4DF808EDF2
:10111000FFF7F4FF0CBF012000205DF808FB00BFC3
:101120004DF808EDFFF7EAFF34BF012000205DF81D
:1011300008FB00BF4DF808EDFFF7E0FF94BF01206A
:1011400000205DF808FB00BF4DF808EDFFF7CEFF6B
:1011500094BF012000205DF808FB00BF4DF808EDAA
:10116000FFF7C4FF34BF012000205DF808FB00BF7B
:101170004FEA410C7FEA6C5C02D150EA013C0AD193
:101180004FEA430C7FEA6C5C02D152EA033C02D185
:101190004FF0000070474FF0010070474FEA4102E6
:1011A00012F5001215D211D56FF47873B3EB6252B9
:1011B00012D94FEAC12343F0004343EA505311F0E0
:1011C000004F23FA02F018BF404270474FF0000072
:1011D000704750EA013005D111F0004008BF6FF0B0
:1011E000004070474FF00000704700BF53B94AB944
:1011F000002908BF00281CBF4FF0FF314FF0FF301F
:1012000000F076B9ADF1080C6DE904CE00F006F8F7
:10121000DDF804E0DDE9022304B070472DE9F04772
:10122000089E0D4604468846002B4DD18A429446BE
:1012300068D9B2FA82F252B101FA02F3C2F1200186
:1012400020FA01F10CFA02FC41EA030894404FEA4B
:101250001C41B8FBF1F71FFA8CFE01FB178807FB56
:101260000EF0230C43EA084398420AD91CEB03030F
:1012700007F1FF3580F01E81984240F21B81023F4A
:1012800063441B1AB3FBF1F001FB103300FB0EFEAD
:10129000A4B244EA0344A6450AD91CEB040400F1B5
:1012A000FF3380F00981A64540F20681644402388C
:1012B0000021A4EB0E0440EA07401EB10023D440F5
:1012C000C6E90043BDE8F0878B4208D9002E00F044
:1012D000EE800021C6E900050846BDE8F087B3FAB4
:1012E00083F100294AD1AB4202D3824200F2FC8052
:1012F000841A65EB030301209846002EE2D0C6E96C
:101300000048DFE702B9FFDEB2FA82F2002A40F0BD
:101310009180A1EB0C0001214FEA1C471FFA8CFEC3
:10132000B0FBF7F307FB1300250C45EA00450EFB65
:1013300003F0A84208D91CEB050503F1FF3802D2DF
:10134000A84200F2CE8043462D1AB5FBF7F007FB0A
:1013500010550EFB00FEA4B244EA0544A64508D988
:101360001CEB040400F1FF3502D2A64500F2B68062
:101370002846A4EB0E0440EA03409EE7C1F1200793
:101380008B4022FA07FC4CEA030C25FA07FA4FEAD5
:101390001C49BAFBF9F820FA07F309FB18AA8D409B
:1013A0001FFA8CFE1D4300FA01F308FB0EF02C0C13
:1013B00044EA0A44A04202FA01F20BD91CEB0404ED
:1013C00008F1FF3A80F08880A04240F28580A8F1C1
:1013D00002086444241AB4FBF9F009FB104400FB32
:1013E0000EFEADB245EA0444A64508D91CEB040440
:1013F00000F1FF356CD2A6456AD90238644440EA50
:101400000840A0FB0295A4EB0E04AC42C846AE46D1
:1014100056D353D0002E69D0B3EB080264EB0E0410
:1014200022FA01F304FA07F71F43CC40C6E900741F
:10143000002147E70CFA02FCC2F1200125FA01F372
:101440004FEA1C4720FA01F195400D43B3FBF7F139
:1014500007FB11331FFA8CFE280C40EA034001FB06
:101460000EF3834204FA02F408D91CEB000001F1E8
:10147000FF382FD283422DD902396044C01AB0FB05
:10148000F7F307FB1300ADB245EA004503FB0EF08E
:10149000A84208D91CEB050503F1FF3816D2A84273
:1014A00014D9023B6544281A43EA014138E7314622
:1014B000304607E72F46E4E61846F9E64B45A9D241
:1014C000B9EB020865EB0C0E0138A3E74346EAE7E7
:1014D000284694E74146D1E7D0467BE7644402388A
:1014E00047E7023B65442FE7084606E73146E9E651
:1014F000704700BF00B585B00023019302930393AA
:101500001748184A02604FF4807282600122027309
:1015100003754FF46022C26143600223036100F04F
:101520001DFEA0B90123019302930023039301A997
:101530000B4800F069FC68B902230193029301A9EA
:10154000074800F061FC40B905B05DF804FB00F00D
:101550000BF9E7E700F008F9EEE700F005F9F3E72B
:10156000D40900200024014010B586B00023029366
:1015700003930493059302681D4B9A4201D006B071
:1015800010BD044603F56C439A6942F400729A61F7
:101590009A6902F400720092009A9A6942F0040279
:1015A0009A619B6903F004030193019B0623029354
:1015B0000323039302A90F4801F03CF80E480F4B98
:1015C00003600023436083608022C2604FF4007296
:1015D00002614FF4006242618361C36100F0F4FE76
:1015E00018B9054B23625C62C9E700F0BDF8F8E763
:1015F0000024014000080140040A002008000240C5
:1016000000B583B00A4B5A6942F001025A615B6926
:1016100003F001030193019B002211460B2000F00F
:1016200063FE0B2000F098FE03B05DF804FB00BFE2
:101630000010024010B588B0002204920592069274
:101640000792174B996941F020019961996901F05E
:10165000200101910199996941F004019961996909
:1016600001F0040102910299996941F00801996120
:101670009B6903F008030393039B0A4C082120464F
:1016800001F0EAF80823049301230593069302234B
:10169000079304A9204600F0CDFF08B010BD00BF9D
:1016A000001002400008014008B50B480B4B0360D6
:1016B0000B4B436000238360C3604FF480420261A0
:1016C00043618361C361036201F02AFB00B908BD75
:1016D00000F04AF8FBE700BF480A00200054004031
:1016E000A086010010B586B00023029303930493F3
:1016F00005930268114B9A4201D006B010BD104C00
:10170000A36943F00803A361A36903F008030093EE
:10171000009BC0230293122303930323059302A982
:10172000084800F087FFE36943F40013E361E369CD
:1017300003F400130193019BDFE700BF0054004056
:1017400000100240000C014000B583B001900A2354
:10175000012201A9034802F0B9FD019803B05DF828
:1017600004FB00BFE80A002072B6FEE700B595B0A2
:10177000282200210DEB020003F0AAF900230593B3
:101780000693079308930993019302930393049399
:1017900001220A924FF480330B930E92022211928F
:1017A00012934FF4E01313930AA801F015FEC8B981
:1017B0000F23059302210691002307934FF48062C3
:1017C0000892099305A802F039F868B90223019339
:1017D0004FF40043039301A802F00CF930B915B09F
:1017E0005DF804FBFFF7C0FFFFF7BEFFFFF7BCFF8C
:1017F00030B585B000F092FAFFF7B8FFFFF71AFF97
:10180000FFF7FEFEFFF776FEFFF74EFF00F0E4F96C
:1018100000F06EF9364B93E8030004AB03E90300D4
:10182000344C0021204602F0EFFB0421204602F058
:10183000EBFB0821204602F0E7FB012208212E489D
:1018400001F00AF823684FF461725A6300259D6322
:10185000DD63C82000F086FA00240DE002F0B6FD3A
:10186000FEF73CFF4FF06651FEF78CFF0146204625
:10187000FEF780FE04460135632DEFDD1F4920464B
:10188000FFF734F81E49FEF77DFF02461D4B1E4947
:101890001E4802F0B1FF642000F064FA1C4C0222E2
:1018A00002A9204600F096FB0298FEF713FF1949A3
:1018B000FEF768FF4FF06651FEF764FF1649FEF72A
:1018C00057FE00900398FEF705FF1249FEF75AFFF6
:1018D0004FF06651FEF756FF0F49FEF749FE0190A3
:1018E0000A4802F0A9FF204600F0BCFCD6E700BF82
:1018F00098BE0008A00A0020000801400000C8426D
:10190000DB0FC940000010410000E040380B002010
:10191000D409002033335340713DCA3F82B00E4B8F
:101920009A6942F001029A619A6902F001020092FA
:10193000009ADA6942F08052DA61DB6903F0805381
:101940000193019B054A536823F0E06343F0007361
:10195000536002B0704700BF001002400000014019
:10196000FEE7FEE7FEE7FEE7FEE7704770477047D9
:1019700008B500F0E5F908BD08B5024800F0B8FD6B
:1019800008BD00BF040A00200120704708B503F01D
:1019900075F8162303604FF0FF3008BD08B54FF00F
:1019A000FF31FFF7F3FFFEE770B50C461646002542
:1019B00006E0AFF30080214601F8010B01350C462B
:1019C000B542F6DB304670BD70B50C4616460025B4
:1019D00004E014F8010BFFF7B7FE0135B542F8DB60
:1019E000304670BD4FF0FF3070474FF400534B60EE
:1019F00000207047012070470020704710B5034653
:101A00000C4A0D490D48006840B10C480068034479
:101A1000521A934206D8094A136010BD0748084C71
:101A20000460F2E703F02AF80C2303604FF0FF3064
:101A3000F3E700BF00500020000400009C0A0020D3
:101A4000000C002070470368B3F1804F00D070474E
:101A500082B003F50433DA6942F00102DA61DB692E
:101A600003F001030193019B02B0704710B586B0EB
:101A7000002302930393049305930368B3F1804F0B
:101A800001D006B010BD03F504339A6942F0080294
:101A90009A619A6902F008020092009A9A6942F0EB
:101AA00004029A619B6903F004030193019B4FF4C4
:101AB0008163029302240394059402A9094800F06B
:101AC000B9FD4FF4004302930394059402A906481C
:101AD00000F0B0FD054A536843F0E06343F44073FF
:101AE0005360CEE7000C01400008014000000140B7
:101AF00000B58FB000230A930B930C930D930893BA
:101B00000993019302930393049305930693079318
:101B100030484FF0804202604360202282604FF4E0
:101B2000E162C2600361836102F0DCF8002839D110
:101B30004FF480530A930AA9264802F0D7F90028E7
:101B400033D1244802F0FAF8002831D10023089359
:101B5000099308A91F4802F0C5FA60BB60230193EE
:101B6000002202920392059201A91A4802F044F958
:101B700020BB04220DEB0201164802F03DF900BB28
:101B8000082201A9134802F037F9E8B90C2201A98B
:101B9000104802F031F9D0B90E48FFF767FF0FB0D7
:101BA0005DF804FBFFF7E0FDC2E7FFF7DDFDC8E7E6
:101BB000FFF7DAFDCAE7FFF7D7FDCFE7FFF7D4FD60
:101BC000D7E7FFF7D1FDDBE7FFF7CEFDDEE7FFF755
:101BD000CBFDE1E7A00A002008B50A480A4B0360E4
:101BE0004FF4E133436000238360C36003610C2240
:101BF00042618361C36102F039FB00B908BDFFF7A0
:101C0000B3FDFBE7E80A00200038014010B586B0BC
:101C1000002302930393049305930268174B9A429F
:101C200001D006B010BD03F558439A6942F48042D2
:101C30009A619A6902F480420092009A9A6942F08D
:101C400004029A619B6903F004030193019B4FF422
:101C5000007302930223039303230593084C02A904
:101C6000204600F0E7FC4FF48063029300230393C7
:101C7000049302A9204600F0DDFCD2E700380140C1
:101C800000080140FFF7DEFE0B480C490C4A002318
:101C900002E0D458C4500433C4188C42F9D3094A22
:101CA000094C002301E013600432A242FBD302F08E
:101CB000EBFEFFF79DFD704700000020B8090020F3
:101CC000CCC40008B8090020FC0B0020FEE700008F
:101CD00010B504460E4B18784FF47A73B3FBF0F34B
:101CE0000C4A1068B0FBF3F000F044FB68B90F2C0D
:101CF00001D901200AE0002221464FF0FF3000F018
:101D0000F3FA054B1C60002000E0012010BD00BF6D
:101D100004000020000000200800002008B5074A49
:101D2000136843F010031360032000F0CBFA0F2078
:101D3000FFF7CEFFFFF7F2FD002008BD00200240B4
:101D4000034A1168034B1B780B441360704700BFB4
:101D5000300B002004000020014B1868704700BFC2
:101D6000300B002038B50446FFF7F6FF0546B4F106
:101D7000FF3F02D0044B1B781C44FFF7EDFF401BD4
:101D8000A042FAD338BD00BF04000020704708B558
:101D9000436A9A6A12F0500F1ED19A6A42F4007296
:101DA0009A621A68926802F46022B2F5602F03D03A
:101DB0001846FFF7EBFF08BD1A7B002AF8D19A6A94
:101DC00022F480729A629A6A12F4805FF0D19A6A61
:101DD00042F001029A62EBE71B6A1B6B9847EAE745
:101DE000704708B5406AFFF7FBFF08BD704708B5AC
:101DF000406A836A43F040038362C36A43F004038A
:101E0000C362FFF7F3FF08BD30B482B00022019235
:101E100090F82420012A00F091800346012280F8E6
:101E200024204A68062A2DD80468606B02EB8202DF
:101E3000053A4FF01F0C0CFA02FC20EA0C000D686A
:101E400005FA02F2024362630A68092A3AD91C6859
:101E5000E06802EB42021E3A4FF0070C0CFA02FC5B
:101E600020EA0C008D6805FA02F20243E2600A687B
:101E7000103A012A36D90020002283F8242002B02B
:101E800030BC70470C2A0ED80568286B02EB820222
:101E9000233A1F24944020EA04000C6804FA02F25A
:101EA00002432A63D0E70568E86A02EB8202413AFE
:101EB0001F24944020EA04000C6804FA02F2024352
:101EC000EA62C1E71C68206902EB42024FF0070C8E
:101ED0000CFA02FC20EA0C008D6805FA02F20243BB
:101EE0002261C4E71A681648824205D09A6A42F015
:101EF00020029A620120BFE7906810F4000F1BD106
:101F0000906840F4000090600A68102A01D0002018
:101F1000B2E70C4A12680C49A1FB0212920C02EBC8
:101F200082025200019202E0019A013A0192019A62
:101F3000002AF9D100209FE700209DE702209EE7BC
:101F4000002401400000002083DE1B4330B583B035
:101F50000023019303689A6812F0010F33D10446FD
:101F60009A6842F001029A60184B1B68184AA2FB5B
:101F700003239B0C019302E0019B013B0193019B16
:101F8000002BF9D1FFF7E8FE054623689B6813F0A4
:101F9000010F16D1FFF7E0FE431B022BF5D9236892
:101FA0009B6813F0010FF0D1A36A43F01003A36202
:101FB000E36A43F00103E362002384F82430012044
:101FC00002E0002000E0002003B030BD000000204F
:101FD00083DE1B43F8B504460D46164601684448A7
:101FE000814259D0434B994256D094F82430012B6A
:101FF0007CD0012384F824302046FFF7A7FF074652
:1020000000286ED1A16A21F4706121F0010141F430
:102010008071A1622268374B9A4244D0A36A23F4AC
:102020008013A362536813F4806F05D0A36A23F46E
:10203000405343F48053A362A36A13F4805F48D0F3
:10204000E36A23F00603E362002384F82430236A62
:10205000294A9A62236A294ADA62236A284A1A6359
:1020600023686FF002021A602268936843F4807359
:102070009360216833462A464C31206A00F0DAF931
:1020800023689A6802F46022B2F5602F24D09A681F
:1020900042F480129A6027E0154B5B6813F4702FAE
:1020A000A3D0012720E0A3F580635B6813F4702FB1
:1020B000B4D0A36A43F48013A3620D4B5B6813F49E
:1020C000806FB9D0A36A23F4405343F48053A362D2
:1020D000B2E70023E362B7E79A6842F4A0029A608D
:1020E00002E0002384F824303846F8BD0227FBE7DD
:1020F00000240140002801408F1D0008E31D000856
:10210000EF1D000838B503689A6812F0010F01D17D
:10211000002038BD04469A6822F001029A60FFF759
:102120001BFE054623689B6813F0010F13D0FFF7D1
:1021300013FE431B022BF5D923689B6813F0010F94
:10214000F0D0A36A43F01003A362E36A43F00103F3
:10215000E3620120DDE70020DBE7000000287BD000
:1021600070B50446836A002B4DD02046FFF7CAFFA6
:10217000A36A13F0100369D1002867D1A26A22F480
:10218000885222F0020242F00202A2626268E16911
:102190000A43217B42EA4102A568B5F5807F02D05F
:1021A000012D36D01D46267D012E35D0266871685A
:1021B00021F46941294371602568AE68274931409F
:1021C0001143A960A168B1F5807F01D0012902D136
:1021D0002369013B1B052568E96A21F470010B4363
:1021E000EB62236899681E4B0B409A4225D0A36A84
:1021F00023F0120343F01003A362E36A43F00103E8
:10220000E362012027E0C36280F82430FFF7ACF9D5
:10221000ABE74FF48075C6E731B9A169013945EAEA
:10222000413141F40065C1E7A16A41F02001A1629A
:10223000E16A41F00101E162B8E70023E362A36AC9
:1022400023F0030343F00103A36204E0A36A43F015
:102250001003A362012070BD01207047FDF7E1FF6C
:10226000FE0E1FFF90F82430012B28D010B5044635
:10227000012380F82430FFF745FF50B922689368A6
:1022800023F480739360226A92F82130DBB2022B30
:1022900003D0002384F8243010BD104600F005F967
:1022A00040B9A36A23F4885323F0010343F00103E8
:1022B000A362EEE7A36A43F04003A362E9E70220CA
:1022C00070470000074AD36823F4E0631B041B0C2B
:1022D000000200F4E060034343F0BF6343F40033C3
:1022E000D360704700ED00E000B5194BDB68C3F325
:1022F0000223C3F1070CBCF1040F28BF4FF0040CFC
:1023000003F1040EBEF1060F18D9033B4FF0FF3E58
:102310000EFA0CFC21EA0C0199400EFA03F322EAB2
:102320000303194300280BDB0901C9B200F1604027
:1023300000F5614080F800135DF804FB0023E5E739
:1023400000F00F000901C9B2024B1954F4E700BFB5
:1023500000ED00E014ED00E0002807DB00F01F02B4
:10236000400901239340024A42F82030704700BFE1
:1023700000E100E00138B0F1807F0BD24FF0E023A4
:102380005861054AF02182F8231000209861072245
:102390001A6170470120704700ED00E030B401245D
:1023A000056CAC40C56B6C60046863604368102BBF
:1023B00005D0036899600368DA6030BC7047036831
:1023C0009A600368D960F8E760B310B40246016808
:1023D000154B0B441548A0FB03031B099B0013641A
:1023E000134BD363022382F82130086820F47F5016
:1023F00020F03000536894682343D4682343146961
:1024000023435469234394692343D46923430343F7
:102410000B6000209063012382F8213082F82000B5
:1024200010BC704701207047F8FFFDBFCDCCCCCC6D
:102430000000024038B5044690F82000012832D050
:10244000012084F8200094F82100C0B2012804D0B3
:10245000002384F82030022038BD022084F82100B7
:102460000020A0632568286820F00100286020462D
:10247000FFF794FFE36A5BB12268136843F00E0331
:1024800013602268136843F0010313600020E3E740
:102490002268136823F0040313602268136843F072
:1024A0000A031360EDE70220D6E790F82130DBB293
:1024B000022B06D004238363002380F82030012000
:1024C00070470268136823F00E03136002681368F4
:1024D00023F001031360036CC16B012202FA03F3C2
:1024E0004B6080F82120002380F820301846704788
:1024F00038B5C36B1A6804682568016C04238B40E7
:10250000134235D015F0040F32D0236813F0200F9A
:1025100003D1236823F0040323600368434A9342F2
:1025200014D01432934218D01432934217D014327C
:10253000934217D01432934217D01432934202D0F0
:102540004FF0806203E04FF4800200E00422384B39
:102550005A60C36A03B1984738BD4022F7E74FF489
:102560008062F4E74FF48042F1E74FF48022EEE717
:1025700002238B4013423CD015F0020F39D0236860
:1025800013F0200F06D1236823F00A0323600123F0
:1025900080F821300368254A934214D014329342C4
:1025A0001CD0143293421BD0143293421BD01432ED
:1025B00093421BD01432934202D04FF0007203E0DA
:1025C0004FF4001200E00222194B5A60002380F8F9
:1025D0002030836A002BBFD09847BDE72022F3E765
:1025E0004FF40072F0E74FF40052EDE74FF4003281
:1025F000EAE7082303FA01F11142ADD015F0080F04
:10260000AAD0236823F00E032360026CC16B012360
:1026100003FA02F24A60836380F82130002380F8D5
:102620002030036B002B97D0984795E708000240B5
:102630000000024070B582B00024A446A6E0804DA0
:10264000AA4210D007D97F4DAA420CD005F580359B
:10265000AA4208D013E0A5F58015AA4203D005F5DB
:102660007025AA4207D18A68002A58D0012A51D081
:102670004361082403E0A5F58015AA42F3D0BEF11A
:10268000FF0F4ED80646BEF1FF0F4CD84FEA8C0222
:1026900033680F25954023EA050304FA02F2134339
:1026A00033604B6813F0805F6ED0674B9A6942F0DD
:1026B00001029A619B6903F001030193019B4FEAB8
:1026C0009C02951C614B53F825600CF003039D00A0
:1026D0000F23AB4026EA03065D4B984229D003F551
:1026E0008063984200F08E8003F58063984200F08A
:1026F0008B8003F58063984219D004231AE0CC68DC
:10270000BDE7CC680434BAE7CC680834B7E7CC68D6
:102710000C34B4E703610824B1E70024AFE70424D4
:10272000ADE7061DAFE7ACF108029200B0E7032366
:1027300000E00023AB4033430232444D45F82230E1
:102740004B6813F4801F61D0424A936843EA0E033A
:1027500093604B6813F4001F5ED03E4AD36843EA8F
:102760000E03D3604B6813F4003F5BD0394A5368C3
:1027700043EA0E0353604B6813F4803F58D0354A48
:10278000136843EA0E0313600CF1010C0A6832FA75
:102790000CF353D0012303FA0CF302EA030E33EADD
:1027A0000202F1D14A68122A3FF649AF122A3FF6D7
:1027B00066AF01A555F822F067260008FF2600083D
:1027C000092700081B2700087F2600087F2600082D
:1027D0007F2600087F2600087F2600087F26000845
:1027E0007F2600087F2600087F2600087F26000835
:1027F0007F2600087F2600087F26000803270008A0
:102800000F270008012395E7022393E7114A9368F5
:1028100023EA0E0393609CE70E4AD36823EA0E0373
:10282000D3609FE70B4A536823EA0E035360A2E785
:10283000084A136823EA0E031360A5E702B070BDCF
:102840000000221000003110001002400000014082
:1028500000080140000401400AB101617047090409
:102860000161704703685A6912F4806F01D100203A
:1028700070476FF480625A6100230363202280F85E
:102880003D2080F83E30026C42F00402026480F881
:102890003C30012070472DE9F04106460C461746B2
:1028A00098463BE0FFF758FA069BC01A404502D80D
:1028B000B8F1000F32D1012D18D033689B6924EA9A
:1028C00003039BB2B3FA83F35B099F4226D1002333
:1028D0003363202286F83D2086F83E30326C42F089
:1028E0002002326486F83C30012027E033685B69BF
:1028F00024EA03039BB2B3FA83F35B09E5E7336889
:102900005B6924EA030C1FFA8CFCBCFA8CFC4FEACE
:102910005C1C674511D1B8F1FF3FC3D1C4F3074533
:10292000012DECD033689B6924EA030C1FFA8CFC60
:10293000BCFA8CFC4FEA5C1CEBE70020BDE8F081A0
:102940002DE9F84305460E469046994653E01A682D
:1029500042F400721A602B686FF480625A6100239F
:102960002B63202285F83D2085F83E302A6C42F00A
:1029700004022A6485F83C3001204AE0FFF7ECF9B4
:10298000A0EB0900404502D8B8F1000F33D1012F68
:1029900017D02B689B6926EA03039BB2003B18BF44
:1029A000012343B300232B63202285F83D2085F8C3
:1029B0003E302A6C42F020022A6485F83C30012027
:1029C00027E02B685B6926EA03039BB2003B18BF34
:1029D0000123E6E72B689C6926EA0404A4B2003CC4
:1029E00018BF0124A4B12B685A6912F4806FAED1CC
:1029F000B8F1FF3FC2D1C6F30747012FEAD12B68D8
:102A00005C6926EA0404A4B2003C18BF0124E9E78B
:102A10000020BDE8F8830000F0B583B004460D4601
:102A200016461F46C36A082B0DD0012B0BD013F599
:102A3000803F08D0036B122B0AD10268136843F45D
:102A40008073136004E02268136843F4807313609A
:102A50000097334600224FF001112046FFF71BFF7D
:102A600080B92369B3F5804F16D1236805F0FE05C0
:102A70001D613B46324613492046FFF761FFF8B916
:102A800003B0F0BD23681B6813F4807F02D04FF4BD
:102A9000007323640320F3E7EB11226803F00603BD
:102AA00043F0F00313613B46324607492046FFF7E7
:102AB00047FF18B92368EDB21D61DAE70120DFE7AF
:102AC0000120DDE702000100080001002DE9F041CE
:102AD00084B004460D4616461F46C26A01680B685C
:102AE00043F480630B60082A0DD0012A0BD012F545
:102AF000803F08D0036B112B0AD10268136843F49E
:102B00008073136004E02268136843F480731360D9
:102B10000097334600224FF001112046FFF7BBFE1D
:102B200098B92369B3F5804F19D1236845F00105A1
:102B3000EDB21D613B4632462A492046FFF700FFB1
:102B400000284CD104B0BDE8F08123681B6813F461
:102B5000807F02D04FF4007323640320F2E74FEA32
:102B6000E51808F00608236848F0F0021A613B46B1
:102B700032461D492046FFF7E3FE08B10120E1E798
:102B80002368EDB21D613B46324616492046FFF7E9
:102B9000D7FE08B10120D5E70022039223685969C6
:102BA0000391996903910399196841F4807119603F
:102BB000009733464FF001112046FFF76CFE20B915
:102BC000226848F0F1031361B4E723681B6813F42B
:102BD000807F02D04FF4007323640320B2E701200A
:102BE000B0E700BF020001000800010070B5044614
:102BF0000D46164623685B6913F0800F21D12046ED
:102C0000FFF730FEF8B9B5F1FF3FF3D0FFF7A4F8B6
:102C1000801BA84201D8002DECD123685B6913F01A
:102C2000800FE7D100232363202284F83D2084F81D
:102C30003E30226C42F02002226484F83C300120B5
:102C400000E0002070BD0120FCE770B504460D4691
:102C5000164623685B6913F0040F21D12046FFF765
:102C600001FEF8B9B5F1FF3FF3D0FFF775F8801B0F
:102C7000A84201D8002DECD123685B6913F0040F42
:102C8000E7D100232363202284F83D2084F83E30DE
:102C9000226C42F02002226484F83C30012000E0E3
:102CA000002070BD0120FCE770B504460D461646B5
:102CB00014E06FF010025A6100232363202284F88D
:102CC0003D2084F83E30226C226484F83C300120A0
:102CD00025E023685B6913F0400F10D02368586922
:102CE00010F0400F1AD1586910F0100FE1D1FFF722
:102CF00033F8801BA842ECD8002DEFD1E9E7002380
:102D00002363202284F83D2084F83E30226C42F078
:102D10002002226484F83C30012000E0002070BDD5
:102D2000002800F0CC8070B5044690F83D30002BB0
:102D300077D0242384F83D302268136823F0010300
:102D400013602268136843F4004313602268136819
:102D500023F40043136000F02DFE62685A4B9A4240
:102D600064D85A4B98428CBF00230123002B40F0BB
:102D7000A8805749A1FB00318B0C25686A6822F0B6
:102D80003F0242EA91426A6021680A6A22F03F02E9
:102D900066684D4DAE424FD8013313430B62216834
:102DA000CA6922F44F4222F0FF026668464B9E42F7
:102DB0004CD8431E7600B3FBF6F3013340F6FC70AB
:102DC000034278D0C3F30B031343CB6121680B6834
:102DD00023F0C003E269206A024313430B602168B9
:102DE0008B6823F4034323F0FF032269E068024366
:102DF00013438B602168CB6823F0FF036269A069ED
:102E000002431343CB602268136843F0010313604D
:102E100000202064202384F83D30206384F83E00A5
:102E200070BD80F83C30FEF75DFC82E7294B98428C
:102E30008CBF0023012399E74FF4967505FB03F33C
:102E4000254DA5FB03539B090133A6E7A368BBB936
:102E5000451E06EB460CB5FBFCF50135C5F30B052D
:102E6000B5FA85F56D0945BBC3B9013806EB4603D4
:102E7000B0FBF3F30133C3F30B0343F40043A3E7C5
:102E8000451E06EB860C0CEB8C0CB5FBFCF50135F6
:102E9000C5F30B05B5FA85F56D09E4E7013806EBD6
:102EA000860303EB8303B0FBF3F30133C3F30B039C
:102EB00043F4404388E7042386E7012384E70120A5
:102EC00070470120ACE700BFA08601007F841E0090
:102ED00083DE1B43FF083D00D34D62102DE9F04314
:102EE00085B004460F46914698460C9EFEF734FF87
:102EF000054694F83D00C0B2202804D00227384689
:102F000005B0BDE8F0830095192301224F49204602
:102F1000FFF7C1FC002840F0928094F83C30012B70
:102F200000F08F80012384F83C3023681A6812F087
:102F3000010F03D11A6842F001021A602268136877
:102F400023F400631360212384F83D30102384F8B8
:102F50003E3000232364C4F82490A4F82A80638DB3
:102F600023853B4BE3622B46324639462046FFF72A
:102F700053FD0746002866D10023039323685A694E
:102F800003929B690393039B11E0236C042B01D0F4
:102F90000127B4E72268136843F400731360F7E76E
:102FA0002A4631462046FFF750FE00282ED1238DB9
:102FB000002B36D02A4631462046FFF717FE002860
:102FC000E3D1626A236812781A61606A431C636203
:102FD000618D89B2013989B26185238D013B9BB234
:102FE00023852268516911F0040FD9D0002BD7D066
:102FF00043781361636A01336362638D9BB2013B63
:103000009BB26385238D013B2385C9E7236C042B89
:1030100001D0012773E72268136843F4007313603B
:10302000F7E72268136843F400731360202384F8E1
:103030003D30002384F83E3084F83C305FE70227BF
:103040005DE702275BE7012759E700BF0200100098
:103050000000FFFF2DE9F04389B004460F4691467A
:103060009846109E00230793FEF776FE054694F8D7
:103070003D00C0B2202804D00227384609B0BDE880
:10308000F08300951923012280492046FFF703FCB5
:10309000002840F07A8194F83C30012B00F07781D1
:1030A000012384F83C3023681A6812F0010F03D121
:1030B0001A6842F001021A602268136823F4006360
:1030C0001360222384F83D30102384F83E3000231F
:1030D0002364C4F82490A4F82A80638D23856C4B64
:1030E000E3622B46324639462046FFF7EFFC07469F
:1030F000002840F04E81238D5BB9039323685A6901
:1031000003929A690392039A1A6842F400721A6051
:10311000F3E0012B0FD0022B21D02268136843F477
:10312000806313600023069323685A6906929B69A3
:103130000693069BE1E02268136823F48063136022
:1031400072B60023049323685A6904929A69049220
:10315000049A1A6842F400721A6062B6CDE02268DE
:10316000136843F40063136072B600230593236869
:103170005A6905929A690592059A1A6822F4806242
:103180001A6062B6B9E02A4631462046FFF78CFD48
:10319000002840F0008123681A69636A1A70636A24
:1031A00001336362238D013B2385638D9BB2013B19
:1031B0009BB26385A1E00095334600223549204645
:1031C000FFF769FB002840F0EA802268136823F4C7
:1031D0008063136072B623681A69636A1A70636A3F
:1031E00001336362238D013B2385638D9BB2013BD9
:1031F0009BB26385284B1B68DB08284AA2FB03238C
:103200001B0A03EB8303C3EBC3030793079901393D
:1032100007910799002928D023685A6912F0040FF2
:10322000F4D01A6842F400721A6023681A69636A5B
:103230001A70636A01336362238D013B2385638DBA
:103240009BB2013B9BB2638562B623681A69636ACD
:103250001A70636A01336362238D013B2385638D9A
:103260009BB2013B9BB2638547E00023236320228E
:1032700084F83D2084F83E30226C42F02002226423
:1032800062B684F83C300127F7E600BF0200100068
:103290000000FFFF040001000000002089B5F814C1
:1032A0002A4631462046FFF7FFFC002879D12368E3
:1032B0001A69636A1A70636A01336362228D013A84
:1032C00092B22285638D9BB2013B9BB263852368DA
:1032D000596911F0040F10D0032A48D023681A69E5
:1032E000636A1A70636A01336362238D013B23852D
:1032F000638D9BB2013B9BB26385218D00293BD03E
:103300000329CDD801293FF43EAF02297FF453AF02
:1033100000953346002224492046FFF7BCFA0028D6
:103320003BD172B62268136843F4007313602368BC
:103330001A69636A1A70636A01336362238D013B01
:103340002385638D9BB2013B9BB2638562B6236884
:103350001A69636A1A70636A01336362238D013BE1
:103360002385638D9BB2013B9BB26385C5E71A68D9
:1033700022F480621A60B1E7202384F83D300023F4
:1033800084F83E3084F83C3077E6022775E6022761
:1033900073E6012771E601276FE601276DE6012735
:1033A0006BE6012769E600BF0400010082B0084B0C
:1033B0001B68084AA2FB03235B0A00FB03F301938B
:1033C00000BF019B5A1E0192002BF9D102B0704739
:1033D00000000020D34D6210002800F0F18170B58C
:1033E00082B00446036813F0010F2CD0994B5B6840
:1033F00003F00C03042B1DD0964B5B6803F00C0309
:10340000082B12D06368B3F5803F41D0002B55D113
:1034100003F1804303F504331A6822F480321A6002
:103420001A6822F480221A6037E08A4B5B6813F432
:10343000803FE7D0874B1B6813F4003F03D06368DD
:10344000002B00F0BF81236813F0020F75D0814B71
:103450005B6813F00C0F5FD07E4B5B6803F00C03CE
:10346000082B54D02369002B00F08A807A4B01226C
:103470001A60FEF771FC0546764B1B6813F0020FCD
:1034800075D1FEF769FC401B0228F5D903209EE1A7
:10349000704A136843F480331360636843B3FEF7E4
:1034A0005BFC05466B4B1B6813F4003FCBD1FEF76A
:1034B00053FC401B6428F5D9032088E1B3F5A02F05
:1034C00009D0644B1A6822F480321A601A6822F418
:1034D00080221A60E1E703F18043A3F53C331A68C8
:1034E00042F480221A601A6842F480321A60D4E7EB
:1034F000FEF732FC0546574B1B6813F4003FA2D081
:10350000FEF72AFC401B6428F5D903205FE1514BEC
:103510005B6813F4803FA5D14E4B1B6813F0020F7C
:1035200003D02369012B40F04F814A4A136823F0EE
:10353000F803616943EAC1031360236813F0080FBD
:1035400033D0A369002B5CD0434B0122C3F8802405
:10355000FEF702FC05463F4B5B6A13F0020F21D1D8
:10356000FEF7FAFB401B0228F5D903202FE1394A68
:10357000136823F0F803616943EAC1031360DCE7D1
:10358000354B00221A60FEF7E7FB0546314B1B68FE
:1035900013F0020FD1D0FEF7DFFB401B0228F5D954
:1035A000032014E10120FFF701FF236813F0040F4B
:1035B00000F09680274BDB6913F0805F34D1254BF8
:1035C000DA6942F08052DA61DB6903F080530193DB
:1035D000019B0125214B1B6813F4807F26D0E368F3
:1035E000012B3DD0002B53D103F1804303F504336D
:1035F0001A6A22F001021A621A6A22F004021A629E
:1036000033E0154B0022C3F88024FEF7A5FB0546E6
:10361000104B5B6A13F0020FC7D0FEF79DFB401BF7
:103620000228F5D90320D2E00025D3E70B4A13681E
:1036300043F480731360FEF78FFB0646074B1B684D
:1036400013F4807FCBD1FEF787FB801B6428F5D96C
:103650000320BCE000100240000042420070004025
:103660005F4A136A43F001031362E36833B3FEF762
:1036700073FB06465A4B1B6A13F0020F2FD1FEF75D
:103680006BFB801B41F288339842F3D903209EE004
:10369000052B09D0524B1A6A22F001021A621A6AEB
:1036A00022F004021A62E0E74D4B1A6A42F004026B
:1036B0001A621A6A42F001021A62D6E7FEF74CFB60
:1036C0000646474B1B6A13F0020F08D0FEF744FB77
:1036D000801B41F288339842F3D9032077E0E5B9A3
:1036E000E369002B72D03E4A526802F00C02082AAD
:1036F00056D0022B17D03B4B00221A66FEF72CFB4C
:103700000446374B1B6813F0007F47D0FEF724FBBD
:10371000001B0228F5D9032059E0314AD36923F070
:103720008053D361DCE72F4B00221A66FEF714FBAF
:1037300005462B4B1B6813F0007F06D0FEF70CFBF1
:10374000401B0228F5D9032041E0236AB3F5803FEE
:103750001AD023494B6823F47413226A606A024327
:1037600013434B601F4B01221A66FEF7F5FA04461D
:103770001B4B1B6813F0007F0ED1FEF7EDFA001B08
:103780000228F5D9032022E0154A536823F40033B8
:10379000A1680B435360DCE7002018E0002016E02E
:1037A000012B16D00E4B5B6803F48031226A9142E4
:1037B00011D103F47013626A93420ED1002006E027
:1037C00001207047012002E0012000E0002002B04B
:1037D00070BD0120FBE70120F9E70120F7E700BFFA
:1037E00000100240000042420F4B5B6803F00C02E5
:1037F000082A01D00D487047C3F383420C49885C06
:1038000013F4803F0BD0084B5B68C3F34043094A75
:10381000D35C064A02FB00F0B0FBF3F07047064BA6
:1038200003FB00F0704700BF0010024000127A0056
:10383000B8BE0008C8BE000800093D00002800F01E
:10384000A08070B50D460446524B1B6803F0070379
:103850008B420BD24F4A136823F007030B431360CC
:10386000136803F007038B4240F08D80236813F048
:10387000020F17D013F0040F04D0474A536843F4E3
:10388000E0635360236813F0080F04D0424A536882
:1038900043F460535360404A536823F0F003A16837
:1038A0000B435360236813F0010F31D06368012B81
:1038B00020D0022B25D0384A126812F0020F64D0B3
:1038C00035494A6822F0030213434B60FEF744FA7D
:1038D0000646314B5B6803F00C036268B3EB820F62
:1038E00016D0FEF739FA801B41F288339842F0D99E
:1038F000032045E0284A126812F4003FE0D101207D
:103900003EE0254A126812F0007FD9D1012037E04D
:10391000204B1B6803F00703AB420AD91D4A13680A
:1039200023F007032B431360136803F00703AB4234
:103930002DD1236813F0040F06D0174A536823F4DF
:10394000E063E1680B435360236813F0080F07D06E
:10395000114A536823F46053216943EAC103536059
:10396000FFF742FF0C4B5B68C3F303130B4AD35CB6
:10397000D8400B4B18600B4B1868FEF7A9F90020D4
:1039800070BD012070470120FAE70120F8E701200F
:10399000F6E700BF0020024000100240A0BE000871
:1039A0000000002008000020014B1868704700BF8D
:1039B0000000002008B5FFF7F7FF044B5B68C3F376
:1039C0000223034AD35CD84008BD00BF0010024068
:1039D000B0BE000808B5FFF7E7FF044B5B68C3F310
:1039E000C223034AD35CD84008BD00BF0010024088
:1039F000B0BE000870B582B00446036813F0010F32
:103A000036D03F4BDB6913F0805F49D13C4BDA691C
:103A100042F08052DA61DB6903F080530193019B2D
:103A20000125384B1B6813F4807F3BD0344B1B6A55
:103A300013F4407313D0626802F440729A420ED0BD
:103A40002F4A136A23F440702F490126C1F84064BD
:103A50000026C1F84064106213F0010F36D1284AE5
:103A6000136A23F4407361680B431362002D3ED147
:103A7000236813F0020F06D0214A536823F4404311
:103A8000A1680B435360236813F0100F34D01C4A15
:103A9000536823F48003E1680B43536000202CE05B
:103AA0000025BEE7174A136843F480731360FEF7DE
:103AB00053F90646134B1B6813F4807FB6D1FEF70B
:103AC0004BF9801B6428F5D9032016E0FEF744F972
:103AD00006460B4B1B6A13F0020FC0D1FEF73CF9F0
:103AE000801B41F288339842F3D9032005E0D36963
:103AF00023F08053D361BBE7002002B070BD00BF4C
:103B000000100240007000400000424270B4036A9E
:103B1000026A22F0010202624668826922F07302A0
:103B20000C6844EA020523F002028B6813430D4C33
:103B3000A04209D00B4CA0420DD0466085614A6876
:103B40004263036270BC704723F00803CA681343E2
:103B500023F00403EEE726F440764A6932438E6987
:103B60001643EAE7002C014030B4036A026A22F4EB
:103B7000807202624568C26922F073020C682243B7
:103B800023F400738C6843EA04230F4CA04209D04D
:103B90000D4CA0420ED04560C2614A68C263036208
:103BA00030BC704723F40063CC6843EA042323F459
:103BB0008063EDE725F440554C6945EA04158C69AE
:103BC00045EA0415E7E700BF002C014030B4036A62
:103BD000026A22F4805202624468C26922F4E64218
:103BE0000D6842EA052223F400538D6843EA053349
:103BF000074DA84206D04460C2614A68026403626D
:103C000030BC704724F480444D6944EA8514F2E7DF
:103C1000002C014010B4036A046A24F00104046219
:103C2000846924F0F00C4CEA021223F00A030B43DF
:103C30008261036210BC704710B4036A046A24F006
:103C400010040462846924F4704C4CEA023223F0BC
:103C5000A00343EA01138261036210BC70478368CA
:103C600023F070030B4343F00703836070477047F2
:103C700003681B4A90420AD0B0F1804F07D0A2F5EA
:103C80009432904203D002F58062904203D123F037
:103C900070034A681343124A90420AD0B0F1804F31
:103CA00007D0A2F59432904203D002F58062904290
:103CB00003D123F44073CA68134323F080034A6995
:103CC000134303608B68C3620B688362044B9842A2
:103CD00002D00123436170470B690363F9E700BF1A
:103CE000002C014040B310B5044690F83D30F3B1CC
:103CF000022384F83D30214651F8040BFFF7B8FF4A
:103D0000012384F8463084F83E3084F83F3084F84C
:103D1000403084F8413084F8423084F8433084F8ED
:103D2000443084F8453084F83D30002010BD80F8E0
:103D30003C30FDF788FEDBE70120704740B310B54B
:103D4000044690F83D30F3B1022384F83D3021461B
:103D500051F8040BFFF78CFF012384F8463084F8F8
:103D60003E3084F83F3084F8403084F8413084F8A5
:103D7000423084F8433084F8443084F8453084F885
:103D80003D30002010BD80F83C30FFF770FFDBE7CE
:103D90000120704730B4036A026A22F01002026206
:103DA0004468826922F4E6420D6842EA052223F063
:103DB00020038D6843EA05130E4DA84209D00D4D2E
:103DC000A8420ED0446082614A688263036230BCBC
:103DD000704723F08003CD6843EA051323F04003C6
:103DE000EDE724F440644D6944EA85048D6944EAB2
:103DF0008504E7E7002C014038B590F83C30012BF2
:103E000066D004460D46012380F83C300C2A5AD86F
:103E1000DFE802F0075959591B5959593059595976
:103E200044000068FFF772FE2268936943F00803BC
:103E300093612268936923F0040393612268936974
:103E400029690B43936100203EE00068FFF7A2FF61
:103E50002268936943F4006393612268936923F4B1
:103E60008063936122689369296943EA012393611E
:103E7000002029E00068FFF777FE2268D36943F04D
:103E80000803D3612268D36923F00403D361226855
:103E9000D36929690B43D361002015E00068FFF75F
:103EA00095FE2268D36943F40063D3612268D36925
:103EB00023F48063D3612268D369296943EA01232B
:103EC000D361002000E00120002384F83C3038BD9D
:103ED0000220FCE710B4846824F47F4C42EA0322F9
:103EE0000A4342EA0C02826010BC704790F83C30F2
:103EF000012B78D010B50446012380F83C30022312
:103F000080F83D300268936823F47F4323F0770301
:103F100093600B68602B4CD029D8402B54D00CD91F
:103F2000502B22D1CA6849680068FFF773FE502100
:103F30002068FFF794FE002005E0202B0DD009D962
:103F4000302B0AD00120012384F83D30002384F86F
:103F50003C3010BD0BB1102B05D119462068FFF77E
:103F60007EFE0020EFE70120EDE70120EBE7B3F54F
:103F7000805F34D0B3F5005F0CD1CB684A688968A4
:103F80000068FFF7A7FF2268936843F480439360BB
:103F90000020D8E7702B24D1CB684A688968006874
:103FA000FFF798FF2268936843F07703936000203F
:103FB000C9E7CA6849680068FFF73EFE60212068CB
:103FC000FFF74DFE0020BEE7CA6849680068FFF7AA
:103FD00021FE40212068FFF742FE0020B3E70020C9
:103FE000B1E70120AFE70220704701F01F01012374
:103FF00003FA01FC036A23EA0C030362036A02FA70
:1040000001F10B430362704710B50446084651BBEB
:1040100094F83E30DBB2013B18BF0123002B5BD18B
:10402000002839D1022384F83E300122014620685D
:10403000FFF7DBFF23682A4A93423DD02368284AD2
:1040400093423ED0B3F1804F3BD0A2F594329342DD
:1040500037D002F58062934233D01A6842F00102F1
:104060001A60002039E0042908D008290DD094F8FE
:104070004130DBB2013B18BF0123CFE794F83F305A
:10408000DBB2013B18BF0123C8E794F84030DBB234
:10409000013B18BF0123C1E7042805D0082807D039
:1040A000022384F84130C0E7022384F83F30BCE7A4
:1040B000022384F84030B8E75A6C42F400425A6454
:1040C000BCE79A6802F00702062A07D01A6842F095
:1040D00001021A60002000E0012010BD0020FCE772
:1040E000002C014090F83C30012B2CD010B401235F
:1040F00080F83C30022380F83D3003685A689C68A1
:1041000022F0700C0A6842EA0C025A6003680F4AF7
:1041100093420AD0B3F1804F07D0A2F59432934274
:1041200003D002F58062934204D124F080044A68EF
:1041300014439C60012380F83D30002380F83C301C
:10414000184610BC70470220704700BF002C014089
:1041500010B504460268136923F44053C1680B4349
:10416000136183680269134342691A430168CB688B
:1041700023F4B05323F00C031343CB60026853695C
:1041800023F4407381690B4353610268134B9A42D5
:1041900020D0FFF70FFC024602EB820202EB820204
:1041A00063689B00B2FBF3F20D48A0FB02314909A2
:1041B000642303FB11231B013233A0FB03235B09A0
:1041C00003F0F00202EB011203F00F032168134425
:1041D0008B6010BDFFF7FEFB0246DDE700380140B3
:1041E0001F85EB512DE9F84305460F4616469946C3
:1041F000DDF820802C68246837EA04030CBF4FF0F8
:10420000010C4FF0000CB4452DD1B8F1FF3FF1D0B7
:10421000B8F1000F05D0FDF79FFDA0EB0900404568
:10422000E8D92A6802F10C0353E8003F23F4D07365
:104230000C3242E800310029F3D12A6802F114035C
:1042400053E8003F23F00103143242E80031002913
:10425000F3D1202385F8413085F84230002385F8DA
:104260004030032000E00020BDE8F88360B310B5C3
:10427000044690F8413013B3242384F84130226877
:10428000D36823F40053D3602046FFF761FF226810
:10429000136923F4904313612268536923F02A03BE
:1042A00053612268D36843F40053D36000206064F4
:1042B000202384F8413084F84230606310BD80F8D8
:1042C0004030FDF7A3FCD7E7012070472DE9F0410E
:1042D00082B01E4690F84130DBB2202B4BD1044611
:1042E0000D46904600294AD00AB9012044E0002337
:1042F0004364212380F84130FDF72EFD0746A4F8E2
:104300002480A4F82680A368B3F5805F02D04FF024
:1043100000080FE02369FBB14FF000080AE038F80D
:10432000023B2268C3F308035360E28C92B2013A65
:1043300092B2E284E38C9BB28BB100963B460022A2
:1043400080212046FFF74EFFD8B9002DE7D015F8A1
:10435000012B23685A60E8E7A8460025EAE70096A3
:104360003B46002240212046FFF73CFF58B920235E
:1043700084F8413000E0022002B0BDE8F081012065
:10438000FAE70320F8E70320F6E7000000B583B062
:104390006423009393B20A4601460348FEF79EFD4C
:1043A00003B05DF804FB00BF480A002000B583B0ED
:1043B0006423009393B20A4640F001010248FEF7DD
:1043C00049FE03B05DF804FB480A002010B582B036
:1043D0000C238DF8073001220DF107016C20FFF747
:1043E000D5FF064C022221466C20FFF7DFFF207824
:1043F000637843EA002002B010BD00BF340B0020F8
:1044000008B5FCF709F806F0A1FBFCF75DF808BD5C
:1044100008B5FCF701F806F047FBFCF755F808BDB6
:1044200038B504460846E168FCF7A2F80546606026
:104430000021FCF745FB28B961682068FCF7A2F968
:10444000A06038BD02492846FCF794F86060F3E7A5
:10445000DB0FC9402DE9F843044685682846FFF77D
:10446000D7FF0646D4F814904946FCF78BF9074667
:104470002846FFF7C5FF0546D4F818804146FCF7EB
:1044800081F901463846FCF773F8E0612946484651
:10449000FCF778F9054641463046FCF773F90146CA
:1044A0002846FCF767F82062BDE8F8832DE9F84F4D
:1044B00005460669C469D0F820909E494846FCF735
:1044C00061F93146FCF712FA07469B492046FCF792
:1044D00059F982464946FCF74DF89649FCF752F9DE
:1044E0003146FCF703FA4FF07C51FCF74BF980465C
:1044F00092492046FCF746F904464946FCF73AF84B
:104500008C49FCF73FF93146FCF7F0F94FF07C514C
:10451000FCF738F9064649462046FCF7EFFA002832
:104520004DD04FF0010B49465046FCF7E7FA002802
:1045300048D0012400214846FCF7E0FA002843D087
:10454000012204EB4B035B00DBB21344DBB2032B11
:104550003CD0012B6ED0052B00F09880042B00F08E
:10456000BF80062B00F0F08041467548FCF700F84C
:104570003946FBF7FFFF4FF07C51FCF703F9064685
:1045800001464046FBF7F6FF044631466C48FBF710
:10459000EFFFFCF7BDFAA88439462046FBF7E8FF99
:1045A00001466748FBF7E4FFFCF7B2FAE8842146CE
:1045B0006348FBF7DDFFFCF7ABFA288530E04FF0EE
:1045C000000BB0E70024B5E70022BAE75C493046AB
:1045D000FBF7D0FF3946FBF7CBFF4FF07C51FCF7E0
:1045E000D1F880463146FBF7C3FF04460146384602
:1045F000FBF7C0FF064641465148FBF7B9FFFCF701
:1046000087FAA88421464E48FBF7B2FFFCF780FAF0
:10461000E88431464A48FBF7ABFFFCF779FA288576
:10462000484B1B68AA8C5A63EA8C9A632A8DDA631A
:10463000BDE8F88F31464248FBF79AFF4146FBF749
:1046400097FF4FF07C51FCF79DF804460146304639
:10465000FBF790FF064601464046FBF78BFF0746F7
:1046600031463748FBF784FFFCF752FAA88421460D
:104670003348FBF77DFFFCF74BFAE88439463048B6
:10468000FBF776FFFCF744FA2885C9E739462C4842
:10469000FBF76EFF4146FBF76DFF4FF07C51FCF7D7
:1046A00071F8044601463846FBF764FF064641466A
:1046B000FBF75EFF01462248FBF75AFFFCF728FA9A
:1046C000A88421461E48FBF753FFFCF721FAE88433
:1046D00031461B48FBF74CFFFCF71AFA28859FE789
:1046E00017493846FBF746FF3146FBF741FF4FF0CD
:1046F0007C51FCF747F804463946FBF739FF07467B
:104700003146FBF737FF01460D48FBF731FFFCF759
:10471000FFF9A88439460A48FBF72AFFFCF7F8F9A5
:10472000E88421460648FBF723FFFCF7F1F92885CA
:1047300076E700BF10DB4245D7B3DD3FD7B3DDBF1F
:104740000000E144A00A002014494046FBF712FF94
:104750003146FBF70FFF4FF07C51FCF713F807468B
:104760004146FBF705FF044601460C48FBF700FFF6
:10477000FCF7CEF9A88431462046FBF7F9FE014646
:104780000648FBF7F5FEFCF7C3F9E8843946034811
:10479000FBF7EEFEFCF7BCF9288541E70000E14499
:1047A000002343618161704770B504461546FBF7ED
:1047B000DFFE06464FF07C512846FBF7E3FF01463B
:1047C0003046FCF791F978B905F100404FF07C5183
:1047D000FBF7D8FF01463046FCF77CF948B1294683
:1047E0002046FBF7C7FE03E029462046FBF7C0FE44
:1047F00070BD2046FCE7000030B585B01C46016066
:10480000002545608560C260036107491846FBF7D3
:10481000B9FF0290019400952B46044A00210448F8
:1048200000F06EF805B030BDCDCC4C3F000020410B
:10483000680B0020000000002DE9F04184B0044620
:10484000FFF7C4FDFBF74AFF2749FBF79BFF4FF03B
:104850006651FBF797FF01462046FFF7E1FD234D28
:104860002868FBF7D9FD1EA3D3E90023FBF776FCEC
:10487000FBF72AFE2860DFF878801E4DC8F800504C
:10488000194A29466068FFF78FFF06462A46014607
:10489000194800F04BF8054601462046FFF780FF17
:1048A0003046FBF7B9FD06460F462846FBF7B4FD38
:1048B000CDE90201D8F80000FBF7AEFDCDE900011B
:1048C00032463B460D4800F055F92046FFF7C2FD41
:1048D0002046FFF7EBFD04B0BDE8F081AFF30080A8
:1048E000EC51B81E85EBB13FDB0FC940640B0020D3
:1048F000B00B0020920A863F680B0020CCBE000857
:1049000098B1017042608360009BC360019B0361AA
:10491000029B436100238363436303630362C362B7
:104920008362436243640364C3637047002800F0FA
:10493000A2802DE9F8430446076C4764C66B066401
:104940008261C1611046FBF713FE0546E0632378E0
:10495000002B46D16168FBF715FF80466062A168B5
:104960002846FBF70FFFA16AFBF704FE0746A0628B
:10497000636BA363236B636331462846FBF7F8FD43
:104980002063E168FBF7FEFE0546E062666931469A
:104990003846FCF7B3F888B1A662A16A4046FBF737
:1049A000E9FD01462846FBF7E5FD0546206226693C
:1049B0003146FCF7A3F858B1266214E006F1004630
:1049C00031463846FCF77CF80028E6D0A662E4E7DA
:1049D00006F1004631462846FCF772F818B1266207
:1049E00001E0012B02D0206ABDE8F883D4F80480EE
:1049F0003146FBF7BDFD01464046FBF7C3FE80464E
:104A00006062A1682846FBF7BDFE8146A062636B29
:104A1000A363236B636331463046FBF7ABFD01466E
:104A20002846FBF7A5FD01463846FBF7A3FD2063AA
:104A3000E168FBF7A7FE0546E06249464046FBF702
:104A400099FD01462846FBF795FD216AFBF792FD8B
:104A50000546206226693146FCF750F808B1266207
:104A6000C1E706F1004631462846FCF729F8002840
:104A7000B9D02662B7E7002070470000014B1868E4
:104A8000704700BF0C00002070B50D4E0D4D761B19
:104A9000B61006D0002455F8043B01349847A642CE
:104AA000F9D1094E094D07F0E9F9761BB61006D089
:104AB000002455F8043B01349847A642F9D170BD53
:104AC000C0C40008C0C40008C8C40008C0C40008AE
:104AD000830730B548D0541E002A3FD00346CAB2DF
:104AE00001E0013C3AD303F8012B9D07F9D1032CD7
:104AF0002DD9CDB245EA05250F2C45EA054536D915
:104B0000A4F1100222F00F0C03F1200EE6444FEA4C
:104B1000121C03F1100242E9045542E90255103219
:104B20007245F8D10CF1010214F00C0F03EB0212E4
:104B300004F00F0C13D0ACF1040323F0030304338F
:104B4000134442F8045B9342FBD10CF003042CB1F4
:104B5000CAB21C4403F8012B9C42FBD130BD644611
:104B60001346002CF4D1F9E703461446BFE71A4672
:104B7000A446E0E70FB400B5074A83B004AB106861
:104B800053F8042B8168019300F008F803B05DF836
:104B900004EB04B0704700BF0C0000202DE9F04F7B
:104BA000D5B01C46914607910546099003F03CF9A3
:104BB00002680E941046179204F0E6F816901DB1A4
:104BC000AB6B002B00F01D82079A536EDD0740F19E
:104BD0002D81B2F90C2091B28F0409D4079B42F4C5
:104BE00000529A8191B21A465B6E23F400535366C9
:104BF0000E0740F1C080079B1B69002B00F0BB80B3
:104C000001F01A030A2B00F0C48000242BAB2246CB
:104C100098464D46CDE92944289312940023002458
:104C2000CDE914342B78CDE91922CDE91B22189255
:104C30000B92002B00F08F81AA4604E01AF8013F86
:104C4000002B00F0BB80252BF8D1BAEB050640F015
:104C5000B9809AF80030002B00F07D8100234FF0DE
:104C6000FF324FF02B0920241F469AF8016008926A
:104C70000AF1010A8DF883300A930AF1010AA6F1BC
:104C800020035A2B00F2E180DFE813F00503DF0078
:104C9000DF000003DF00DF00DF00DE02DF00DF00F7
:104CA0006A006E02DF0055027802DF0073025B00CB
:104CB0005B005B005B005B005B005B005B005B001C
:104CC000DF00DF00DF00DF00DF00DF00DF006C015E
:104CD000DF00EA01C4016C016C016C01DF00DF0040
:104CE000DF00DF00D002DF00DF002302DF00DF0093
:104CF000DF00F801DF009202DF00DF008707DF003E
:104D0000DF00DF00DF00DF00DF00DF00DF006C011D
:104D1000DF00EA01C6016C016C016C01B602C6013C
:104D2000BF01DF00C302DF005A022502A402BF0157
:104D3000DF00F80172008407DF00DF006507DF0095
:104D400072000022A6F130031AF8016B02EB820216
:104D500003EB4202A6F13003092BF5D90A928EE744
:104D60000E9B53F8042B002A0A920E93C0F2E081A6
:104D70009AF8006081E7079D0998294601F0FCFC3C
:104D8000002841F04D83A98901F01A030A2B7FF412
:104D90003CAF079AB2F90E30002BFFF636AF536ED8
:104DA000D80702D4890541F1488123464A4607992C
:104DB000099855B0BDE8F04F01F09CBCBAEB050670
:104DC00000F0C9802A9BC8E9005633442A93299BE6
:104DD0000133072B299305DC08F108080B9B3344AA
:104DE0000B9336E70799099828AA04F06BF880B965
:104DF0000DF1AC08F2E70799099828AA04F062F8C7
:104E0000002800F099800D9B1BB11946099802F00B
:104E1000E7FE079A536ED90740F1E88093895B0655
:104E200001F10A830B9855B0BDE8F08F079BB3F9E9
:104E30000C20900591B23FF5CFAE1D46986D02F063
:104E4000FBFFB5F90C2091B2C6E6002E00F083807E
:104E5000012300228DF8EC6006933BAD8DF8832092
:104E60000C930D9208920F921392109217F0020376
:104E700002D006990231069117F0840B07D10A99E6
:104E80000698A1EB0009B9F1000F00F390832A9C6A
:104E900082B10122C8F80420299A013401320DF1AF
:104EA0008301072A2A942992C8F8001000F3D883B6
:104EB00008F108087BB10223C8F80430299B0234AA
:104EC000013321AA072B2A942993C8F8002000F364
:104ED000D58308F10808BBF1800F00F08882089B99
:104EE0000C9AA3EB020BBBF1000F00F3CB82FB0586
:104EF00000F11F820C9BC8F800501C44C8F8043015
:104F0000299B2A940133072B299300F3448308F14A
:104F10000808780705D50A9B069A9D1A002D00F30C
:104F2000B983DDE90A2306998A42ACBF9B185B1856
:104F30000B93002C7FF45FAF002329930D9B1BB1D3
:104F40000D99099802F04CFE55460DF1AC082B78EE
:104F5000002B7FF471AE2A9B002B41F010820023BE
:104F6000299356E70E9B073323F00702F2E8023439
:104F7000CDE91434DDE9143424F000449946184690
:104F80000E9221464FF0FF32AB4BFCF7F1F80028B0
:104F900040F01885484621464FF0FF32A64BFCF7FB
:104FA000C9F8002840F00E85DDE914010022002335
:104FB000FCF7B6F8002840F065879DF883200021B3
:104FC00003209E4D9E4B27F080070D910690472EA3
:104FD000C8BF1D4608910C900F9113911091002AA3
:104FE0003FF444AF069B013306933FE7079B9B8941
:104FF0009A053FF514AF079CA06D02F01FFFA3892F
:105000000DE7099802F0F4FCDEE59AF8006047F03D
:10501000200732E647F01007BA060E9B40F16E8477
:10502000073323F007031A465B6852F8084B99468A
:105030000E92002BC0F26F84089B013300F0FB82BC
:1050400054EA090327F0800B40F0F682089B002BFE
:1050500040F0F7825F46002354AD08930C933DE186
:10506000012000220E9B069053F8041B3BAD8DF8E7
:1050700083208DF8EC100E930C90F2E64FF00009AF
:105080000E9C089B54F8045B8DF88390002D00F073
:10509000A1855A1C00F0A5861A464946284603F009
:1050A000EBF90D90002801F050810D9B9DF88320B5
:1050B0005B1B0C9323EAE373CDF820900E940693C8
:1050C000CDF83490CDF83C90CDF84C90CDF8409090
:1050D00085E747F0100717F0200900F0F2830E9BD8
:1050E000073323F00703D3F8049053F8084B0E93CB
:1050F000002327F4806B00228DF88320089A511C2E
:1051000000F0D48054EA09012BF0800740F0CD80F4
:10511000002A40F00486002B9DD11BF001030C9364
:1051200000F0308430230DF24F158DF84F31D5E06B
:105130000A9B5B420A939AF8006047F004079CE5DB
:10514000BD0600F1FD84FC0600F1EE85780600F155
:10515000B286B90540F1E8850E9B0B9953F8042BF4
:10516000554611700E93F2E69AF800608DF8839020
:1051700083E59AF8006047F080077EE5524612F812
:10518000016B2A2E01F08D82A6F13003092B924685
:1051900098BF002201F2E5801AF8016B02EB82024F
:1051A00003EB4202A6F13003092BF5D9089266E51C
:1051B00047F0100B1BF0200900F091830E9B073382
:1051C00023F007031A4652F8084BD3F804900E92C6
:1051D000012390E7302278260E9B8DF8842053F827
:1051E000044B184A0E934FF00009022347F0020BBC
:1051F0008DF8856018927EE79AF80060682E03BFEC
:105200009AF8016047F400770AF1010A47F0400775
:1052100033E59AF800606C2E03BF9AF8016047F0FE
:1052200020070AF1010A47F0100726E59AF8006006
:1052300047F0080721E500BFFFFFEF7FE4BE00084D
:10524000E8BE0008F4BE0008099E304602F0ECFDFE
:10525000436818461B9303F097FD034630461C93A2
:105260001E4602F0E1FD83681993002E3FF480ADE5
:10527000199B002B3FF47CAD199B1B78002B3FF44E
:1052800077AD9AF8006047F48067F6E49AF800601A
:1052900047F00107F1E49DF88330002B7FF468ADFF
:1052A0009AF800608DF88340E7E4BB46012B00F0DC
:1052B000C381022B54AD1FD1189A04F00F03D35CA5
:1052C000240944EA09744FEA191905F8013D54EA22
:1052D0000903F2D15F4654AB5B1B0C93089A0C99FF
:1052E00000238A42B8BF0A460D9306920F939DF899
:1052F00083201393109372E604F00703E40844EA52
:1053000049744FEAD909303354EA09012A4605F8AD
:10531000013DF1D11BF0010FDCD0302BDAD030236E
:10532000023A05F8013C54AB9B1A5F4615460C93B4
:10533000D4E7652E40F3E980DDE914010022002363
:10534000FBF7E4FE002800F0E1810123C8F80430F7
:10535000299BC04A01330134072B2A942993C8F8AA
:10536000002000F3BF8408F10808229B129A9342A0
:1053700080F2DC82169B179A1C44C8E90023299B03
:105380002A940133072B299300F3178408F10808A6
:10539000129B5D1E002D7FF7BCAD102D41F35D818A
:1053A000DFF8B492224649461026B946299B0F469B
:1053B000DDF824B0079C05E008F10808103D102D29
:1053C00040F39D8401331032072BC8E90076CDE904
:1053D0002932F1DD2146584628AA03F073FD002842
:1053E0007FF411ADDDE929320DF1AC08E6E70A9B47
:1053F000069AA3EB020BBBF1000F7FF770ADBBF178
:10540000100F41F35280DFF85092204641464C463F
:10541000A8461023299A079DDDF8249006E0ABF1F9
:10542000100BBBF1100F01F1080119DD0132103032
:10543000072AC1E90043CDE92920F0DD2946484685
:1054400028AA03F03FFD00287FF4DDACDDE9292028
:10545000ABF1100BBBF1100F4FF010032BA9E5DCE3
:105460004546A1468846044601325C44072ACDE9F8
:105470002924C8F80090C8F804B000F3918308F11B
:1054800008082CE5BBF1100F40F3E384DFF8C89166
:10549000204641464C46A8461023299A079DDDF830
:1054A000249006E0ABF1100BBBF1100F01F10801E5
:1054B00019DD01321030072AC1E90043CDE9292066
:1054C000F0DD2946484628AA03F0FCFC00287FF4BA
:1054D0009AACDDE92920ABF1100BBBF1100F4FF0B6
:1054E00010032BA9E5DC4546A14688460446013257
:1054F0005C44072ACDE92924C8F80090C8F804B014
:1055000000F3D28108F10808F1E4129B012B40F36B
:1055100082810123299E01341E44072EC8F80050C1
:105520002A94C8F80430299600F36C8308F108081F
:10553000169B0136179A1C44072EC8E90023CDE9B3
:10554000296400F36C8308F108080022DDE91401E6
:105550000023FBF7DBFD002840F07A81129B013627
:10556000013B01351C44072EC8F800502996C8F8A5
:1055700004302A9400F35F8108F108081A9B013671
:105580001C44C8F80430072E24ABCDE92964C8F8C0
:1055900000307FF7BCAC0799099828AA03F092FC69
:1055A00000287FF430AC2A9C0DF1AC08B1E4B9F1CD
:1055B000100F40F3C686DDE929214046CDE91D36AE
:1055C000B84610244F46079EA946099D04E0103FA7
:1055D000102F00F1080016DD0132204B1031072A90
:1055E000C0E90034CDE92921F1DD3146284628AA59
:1055F00003F068FC00287FF406ACDDE92921103FA8
:10560000102F2BA8E8DC4D46DDE91D36B94647468C
:10561000804609EB010401321049072ACDE929240B
:10562000C8F80490C8F8001000F340839DF8832068
:1056300008F108082CE4BB460A2C79F1000380F03D
:10564000FB82012330345F468DF84F410C930DF2FD
:105650004F1543E624BF000838BF000828BF0008E4
:105660000799099828AA1D9303F02CFC00287FF4C1
:10567000CAAB2A9C1D9B0DF1AC081BE40799099845
:1056800028AA03F01FFC00287FF4BDAB2A9C0DF173
:10569000AC0820E4102D40F3BE861026299B099FFC
:1056A000DDF81C9004E0103D102D08F1080817DD0E
:1056B0000133BA4A1034072BC8E90026CDE9293452
:1056C000F1DD4946384628AA03F0FCFB00287FF4A8
:1056D0009AABDDE92934103D102D0DF1AC08E7DC63
:1056E0000133AE4A2C44072BCDE92934C8F80450C5
:1056F000C8F800207FF715AC0799099828AA03F08D
:10570000E1FB00287FF47FAB2A9C0AE42299002960
:1057100040F31081DDF84090129B9945A8BF99464F
:10572000B9F1000F0BDD299B4C440133072BC8E96D
:1057300000592A94299300F3818508F10808109EE6
:10574000B9F1000FA8BFA6EB0906002E00F3F58201
:10575000DDF840B07905AB4400F1AC84229B129A8D
:10576000934202DBFA0740F19283169A1799144488
:10577000C8E90012299A2A940132072A299200F3D3
:10578000A88508F10808129AAE18A6EB0B06D51AE0
:10579000AE42A8BF2E46002E0DDD299B34440133B6
:1057A000072BC8F800B0C8F804602A94299300F3C6
:1057B000FC8508F10808002EA8BFAD1B002D7FF75F
:1057C000A8AB102D40F34987DFF8D4912246494613
:1057D0001026B946299B0F46DDF824B0079C05E04A
:1057E00008F10808103D102D40F389820133103272
:1057F000072BC8E90076CDE92932F1DD214658466C
:1058000028AA03F05FFB00287FF4FDAADDE9293216
:105810000DF1AC08E6E7FE073FF57BAE0123299EBC
:1058200001341E44072EC8F800502A94C8F80430EA
:1058300029967FF7A1AE0799099828AA03F042FBA1
:1058400000287FF4E0AADDE929640DF1AC0895E6B3
:10585000129B5D1E002D7FF791AE102D40F319872E
:10586000224608974FF0100BDFF83491099C079FF0
:1058700005E008F10808103D102D40F3C7820136FD
:105880001032072EC8E9009BCDE92962F1DD3946C7
:10589000204628AA03F016FB00287FF4B4AADDE90D
:1058A00029620DF1AC08E6E70799099828AA03F0E8
:1058B00009FB00287FF4A7AA2A9C0DF1AC08FFF78A
:1058C00016BB17F0100377D117F0400200F0AC823E
:1058D0000E9A994652F8044B0E92A4B208E41BF0BB
:1058E00010030E9A54D11BF040014DD052F8044BD6
:1058F00099460E920123A4B2FFF7FDBB53F8044B67
:105900000E93FB0653D47D064ED544F3C0394B4667
:1059100024B2FFF78EBB2D2364428DF88330BB4643
:105920004FF0010369EB4909FFF7E8BBF8077FF582
:10593000F0AA1FE50123C8F80430299B194A013356
:105940000134072B2A942993C8F8002000F36884B7
:1059500008F10808002940F02582129A07F0010397
:1059600013433FF4D6AA169B1799E218C8E900130F
:10597000299B2A920133072B299300F3508308F1C6
:10598000080820E254ADA9E41BF4007940F0A0829D
:1059900052F8044B01230E92FFF7ADBB28BF00085D
:1059A00038BF000824BF0008B80500F179824FEA2B
:1059B000E4794B46FFF73DBB0E9B53F8044B0E9327
:1059C000FFF796BBDDE9140102460B46FBF7D0FB5F
:1059D000002840F0F785612E00F06C85412E00F024
:1059E0007F82089B013300F0948526F02003472B2B
:1059F000069300F07B85DDE9141247F480730F9362
:105A00001346002BC0F2F4850C9300238B461D93A4
:105A10000D93069B462B00F02B84452B00F014853C
:105A200008990C9B01910221009126A9049123A9B8
:105A3000039122A95A460998029100F0ADFF069BF6
:105A40000546472B40F0448617F0010FB9460F9FDB
:105A500040F0F784269B5B1B1293069B472B00F0BC
:105A6000F182069B462B00F04284229B1093109BF0
:105A7000069A013B412A229300F08A850021F2B266
:105A8000002B8DF89020B6BF2D222B22109B8DF875
:105A90009120B8BFC3F10103092B40F381850DF1BB
:105AA0009F0C6246BA4F1C46104687FB0312D9175B
:105AB000C1EBA20101EB8102A3EB42023032632C65
:105AC00000F8012C0B4600F1FF32ECDC3033811E74
:105AD000DBB28C4502F8013C40F2FF850DF19201EA
