:020000040800F2
:100000000050002025160008011300080313000803
:10001000051300080713000809130008000000007A
:100020000000000000000000000000000B130008AA
:100030000D130008000000000F1300081113000842
:100040006D1600086D1600086D1600086D16000884
:100050006D1600086D1600086D1600086D16000874
:100060006D1600086D1600086D16000819130008BB
:100070006D1600086D1600086D1600086D16000854
:100080006D1600086D1600086D1600086D16000844
:100090006D1600086D1600086D1600086D16000834
:1000A0006D1600086D1600086D1600086D16000824
:1000B0006D160008291300086D1600086D1600085B
:1000C0006D1600086D1600086D1600086D16000804
:1000D0006D1600086D1600086D1600086D160008F4
:1000E0006D1600086D1600086D160008000000006F
:1000F0000000000000000000000000000000000000
:0C01000000000000000000005FF808F1A3
:1001100010B5054C237833B9044B13B10448AFF341
:1001200000800123237010BD3C040020000000006B
:10013000FC54000808B5034B1BB103490348AFF357
:10014000008008BD0000000040040020FC540008AE
:1001500081F0004102E000BF83F0004330B54FEA78
:1001600041044FEA430594EA050F08BF90EA020FE5
:100170001FBF54EA000C55EA020C7FEA645C7FEA78
:10018000655C00F0E2804FEA5454D4EB5555B8BF9B
:100190006D420CDD2C4480EA020281EA030382EA0C
:1001A000000083EA010180EA020281EA0303362D9E
:1001B00088BF30BD11F0004F4FEA01314FF4801C71
:1001C0004CEA113102D0404261EB410113F0004F83
:1001D0004FEA03334CEA133302D0524263EB43033A
:1001E00094EA050F00F0A780A4F10104D5F1200ED8
:1001F0000DDB02FA0EFC22FA05F2801841F1000133
:1002000003FA0EF2801843FA05F359410EE0A5F106
:1002100020050EF1200E012A03FA0EFC28BF4CF037
:10022000020C43FA05F3C01851EBE37101F00045ED
:1002300007D54FF0000EDCF1000C7EEB00006EEBFA
:100240000101B1F5801F1BD3B1F5001F0CD3490884
:100250005FEA30004FEA3C0C04F101044FEA4452DB
:1002600012F5800F80F09A80BCF1004F08BF5FEA62
:10027000500C50F1000041EB045141EA050130BD42
:100280005FEA4C0C404141EB0101013C28BFB1F554
:10029000801FE9D291F0000F04BF01460020B1FA9F
:1002A00081F308BF2033A3F10B03B3F120020CDA72
:1002B0000C3208DD02F1140CC2F10C0201FA0CF050
:1002C00021FA02F10CE002F11402D8BFC2F1200CB5
:1002D00001FA02F120FA0CFCDCBF41EA0C0190406B
:1002E000E41AA2BF01EB0451294330BD6FEA0404B4
:1002F0001F3C1CDA0C340EDC04F11404C4F120029F
:1003000020FA04F001FA02F340EA030021FA04F3B0
:1003100045EA030130BDC4F10C04C4F1200220FA07
:1003200002F001FA04F340EA0300294630BD21FA45
:1003300004F0294630BD94F0000F83F4801306BF0B
:1003400081F480110134013D4EE77FEA645C18BFFF
:100350007FEA655C29D094EA050F08BF90EA020F96
:1003600005D054EA000C04BF1946104630BD91EA8E
:10037000030F1EBF0021002030BD5FEA545C05D191
:100380004000494128BF41F0004130BD14F58004D0
:100390003CBF01F5801130BD01F0004545F0FE4144
:1003A00041F470014FF0000030BD7FEA645C1ABF79
:1003B000194610467FEA655C1CBF0B46024650EAB0
:1003C000013406BF52EA033591EA030F41F40021DC
:1003D00030BD00BF90F0000F04BF0021704730B562
:1003E0004FF4806404F132044FF000054FF0000137
:1003F00050E700BF90F0000F04BF0021704730B5F8
:100400004FF4806404F1320410F0004548BF4042CC
:100410004FF000013EE700BF42004FEAE2014FEA21
:1004200031014FEA02701FBF12F07F4393F07F4FFC
:1004300081F06051704732F07F4208BF704793F0FF
:100440007F4F04BF41F40021704730B54FF4607412
:1004500001F0004521F000411CE700BF50EA010215
:1004600008BF704730B54FF000050AE050EA0102BE
:1004700008BF704730B511F0004502D5404261EB2E
:1004800041014FF4806404F132045FEA915C3FF46F
:10049000D8AE4FF003025FEADC0C18BF03325FEA0C
:1004A000DC0C18BF033202EBDC02C2F1200300FABD
:1004B00003FC20FA02F001FA03FE40EA0E0021FAE2
:1004C00002F11444BDE600BF4FEA4102B2F1E0433D
:1004D00024BFB3F5001CDCF1FE5C0DD901F0004C2B
:1004E0004FEAC0024CEA5070B2F1004F40EB83007B
:1004F00008BF20F00100704711F0804F21D113F1A7
:100500003872BCBF01F00040704741F480114FEADF
:100510005252C2F11802C2F1200C10FA0CF320FA68
:1005200002F018BF40F001004FEAC1234FEAD32385
:1005300003FA0CFC40EA0C0023FA02F34FEA4303EF
:10054000CCE77FEA625307D150EA01331EBF4FF078
:10055000FE4040F44000704701F0004040F0FE4093
:1005600040F40000704700BF80F0004002E000BF90
:1005700081F0004142001FBF5FEA410392EA030F8E
:100580007FEA226C7FEA236C6AD04FEA1262D2EBD8
:100590001363C1BFD218414048404140B8BF5B42DD
:1005A000192B88BF704710F0004F40F4000020F076
:1005B0007F4018BF404211F0004F41F4000121F08C
:1005C0007F4118BF494292EA030F3FD0A2F10102D6
:1005D00041FA03FC10EB0C00C3F1200301FA03F114
:1005E00000F0004302D5494260EB4000B0F5000F37
:1005F00013D3B0F1807F06D340084FEA310102F1F6
:100600000102FE2A51D2B1F1004F40EBC25008BFA7
:1006100020F0010040EA03007047490040EB000071
:10062000013A28BFB0F5000FEDD2B0FA80FCACF172
:10063000080CB2EB0C0200FA0CF0AABF00EBC2509F
:1006400052421843BCBFD0401843704792F0000F8D
:1006500081F4000106BF80F400000132013BB5E7E0
:100660004FEA41037FEA226C18BF7FEA236C21D056
:1006700092EA030F04D092F0000F08BF08467047BB
:1006800090EA010F1CBF0020704712F07F4F04D189
:10069000400028BF40F00040704712F100723CBF9C
:1006A00000F50000704700F0004343F0FE4040F4C6
:1006B000000070477FEA226216BF08467FEA236384
:1006C0000146420206BF5FEA412390EA010F40F46F
:1006D000800070474FF0000304E000BF10F00043BB
:1006E00048BF40425FEA000C08BF704743F09643A2
:1006F00001464FF000001CE050EA010208BF7047BD
:100700004FF000030AE000BF50EA010208BF704743
:1007100011F0004302D5404261EB41015FEA010C58
:1007200002BF84460146002043F0B64308BFA3F150
:100730008053A3F50003BCFA8CF2083AA3EBC25332
:1007400010DB01FA02FC634400FA02FCC2F1200251
:10075000BCF1004F20FA02F243EB020008BF20F088
:100760000100704702F1200201FA02FCC2F12002EE
:1007700050EA4C0021FA02F243EB020008BF20EAE3
:10078000DC7070474FF0FF0C1CEAD0521EBF1CEA11
:10079000D15392EA0C0F93EA0C0F6FD01A4480EAFF
:1007A000010C400218BF5FEA41211ED04FF00063E8
:1007B00043EA501043EA5111A0FB01310CF0004014
:1007C000B1F5000F3EBF490041EAD3715B0040EA3A
:1007D000010062F17F02FD2A1DD8B3F1004F40EB0A
:1007E000C25008BF20F00100704790F0000F0CF0DD
:1007F000004C08BF49024CEA502040EA51207F3AA1
:10080000C2BFD2F1FF0340EAC250704740F400007B
:100810004FF00003013A5DDC12F1190FDCBF00F06C
:1008200000407047C2F10002410021FA02F1C2F11A
:10083000200200FA02FC5FEA310040F1000053EAB6
:100840004C0308BF20EADC70704792F0000F00F004
:10085000004C02BF400010F4000F013AF9D040EA0A
:100860000C0093F0000F01F0004C02BF490011F49E
:10087000000F013BF9D041EA0C018FE70CEAD1539C
:1008800092EA0C0F18BF93EA0C0F0AD030F0004C1C
:1008900018BF31F0004CD8D180EA010000F00040D0
:1008A000704790F0000F17BF90F0004F084691F08E
:1008B000000F91F0004F14D092EA0C0F01D14202C8
:1008C0000FD193EA0C0F03D14B0218BF084608D191
:1008D00080EA010000F0004040F0FE4040F40000DB
:1008E000704740F0FE4040F4400070474FF0FF0C6E
:1008F0001CEAD0521EBF1CEAD15392EA0C0F93EAB5
:100900000C0F69D0A2EB030280EA010C49024FEA06
:10091000402037D04FF0805343EA111143EA1013BF
:100920000CF000408B4238BF5B0042F17D024FF477
:10093000000C8B4224BF5B1A40EA0C00B3EB510F52
:1009400024BFA3EB510340EA5C00B3EB910F24BF3B
:10095000A3EB910340EA9C00B3EBD10F24BFA3EBC0
:10096000D10340EADC001B0118BF5FEA1C1CE0D188
:10097000FD2A3FF650AF8B4240EBC25008BF20F03B
:10098000010070470CF0004C4CEA50207F32C2BF8F
:10099000D2F1FF0340EAC250704740F400004FF02C
:1009A0000003013A37E792F0000F00F0004C02BF5D
:1009B000400010F4000F013AF9D040EA0C0093F027
:1009C000000F01F0004C02BF490011F4000F013B81
:1009D000F9D041EA0C0195E70CEAD15392EA0C0FE9
:1009E00008D142027FF47DAF93EA0C0F7FF470AF21
:1009F000084676E793EA0C0F04D14B023FF44CAF64
:100A000008466EE730F0004C18BF31F0004CCAD1F8
:100A100030F000427FF45CAF31F000437FF43CAF34
:100A20005FE700BF4FF0FF3C06E000BF4FF0010C56
:100A300002E000BF4FF0010C4DF804CD4FEA400238
:100A40004FEA41037FEA226C18BF7FEA236C11D082
:100A500001B052EA530C18BF90EA010F58BFB2EB35
:100A6000030088BFC81738BF6FEAE17018BF40F0B5
:100A7000010070477FEA226C02D15FEA402C05D169
:100A80007FEA236CE4D15FEA412CE1D05DF8040BEE
:100A9000704700BF844608466146FFE70FB5FFF781
:100AA000C9FF002848BF10F1000F0FBD4DF808ED39
:100AB000FFF7F4FF0CBF012000205DF808FB00BF2A
:100AC0004DF808EDFFF7EAFF34BF012000205DF884
:100AD00008FB00BF4DF808EDFFF7E0FF94BF0120D1
:100AE00000205DF808FB00BF4DF808EDFFF7D2FFCE
:100AF00094BF012000205DF808FB00BF4DF808ED11
:100B0000FFF7C8FF34BF012000205DF808FB00BFDD
:100B100042000ED2B2F1FE4F0BD34FF09E03B3EB67
:100B2000126209D44FEA002343F0004323FA02F093
:100B300070474FF00000704712F1610F01D142027F
:100B400002D14FF0FF3070474FF00000704700BFF8
:100B500070B54FF0FF0C4CF4E06C1CEA11541DBF53
:100B60001CEA135594EA0C0F95EA0C0F00F0DEF81E
:100B70002C4481EA030621EA4C5123EA4C5350EA03
:100B8000013518BF52EA033541F4801143F4801354
:100B900038D0A0FB02CE4FF00005E1FB02E506F0E5
:100BA0000042E0FB03E54FF00006E1FB03569CF03A
:100BB000000F18BF4EF0010EA4F1FF04B6F5007F40
:100BC00064F5407404D25FEA4E0E6D4146EB0606B2
:100BD00042EAC62141EA55514FEAC52040EA5E503B
:100BE0004FEACE2EB4F1FD0C88BFBCF5E06F1ED8E5
:100BF000BEF1004F08BF5FEA500E50F1000041EB1C
:100C0000045170BD06F0004646EA010140EA0200C8
:100C100081EA0301B4EB5C04C2BFD4EB0C0541EAEA
:100C2000045170BD41F480114FF0000E013C00F3FF
:100C3000AB8014F1360FDEBF002001F0004170BD23
:100C4000C4F10004203C35DA0C341BDC04F114043C
:100C5000C4F1200500FA05F320FA04F001FA05F2C8
:100C600040EA020001F0004221F0004110EBD37095
:100C700021FA04F642EB06015EEA430E08BF20EAC1
:100C8000D37070BDC4F10C04C4F1200500FA04F364
:100C900020FA05F001FA04F240EA020001F00041F6
:100CA00010EBD37041F100015EEA430E08BF20EA69
:100CB000D37070BDC4F1200500FA05F24EEA020EB1
:100CC00020FA04F301FA05F243EA020321FA04F0E0
:100CD00001F0004121FA04F220EA020000EBD37097
:100CE0005EEA430E08BF20EAD37070BD94F0000F97
:100CF0000FD101F00046400041EB010111F4801FCB
:100D000008BF013CF7D041EA060195F0000F18BF7B
:100D1000704703F00046520043EB030313F4801FB7
:100D200008BF013DF7D043EA0603704794EA0C0F71
:100D30000CEA135518BF95EA0C0F0CD050EA410687
:100D400018BF52EA4306D1D181EA030101F0004104
:100D50004FF0000070BD50EA410606BF104619462C
:100D600052EA430619D094EA0C0F02D150EA013638
:100D700013D195EA0C0F05D152EA03361CBF104679
:100D800019460AD181EA030101F0004141F0FE4118
:100D900041F470014FF0000070BD41F0FE4141F49C
:100DA000780170BD4FF0FF3C06E000BF4FF0010C32
:100DB00002E000BF4FF0010C4DF804CD4FEA410CAA
:100DC0007FEA6C5C4FEA430C18BF7FEA6C5C1BD077
:100DD00001B050EA410C0CBF52EA430C91EA030FF8
:100DE00002BF90EA020F0020704710F1000F91EA55
:100DF000030F58BF994208BF90422CBFD8176FEA23
:100E0000E37040F0010070474FEA410C7FEA6C5CF0
:100E100002D150EA013C07D14FEA430C7FEA6C5CF7
:100E2000D6D152EA033CD3D05DF8040B704700BF23
:100E30008446104662468C461946634600E000BF71
:100E400001B5FFF7B7FF002848BF10F1000F01BD43
:100E50004DF808EDFFF7F4FF0CBF012000205DF80E
:100E600008FB00BF4DF808EDFFF7EAFF34BF012093
:100E700000205DF808FB00BF4DF808EDFFF7E0FF2C
:100E800094BF012000205DF808FB00BF4DF808ED7D
:100E9000FFF7CEFF94BF012000205DF808FB00BFE4
:100EA0004DF808EDFFF7C4FF34BF012000205DF8C6
:100EB00008FB00BF4FEA410212F5001215D211D50E
:100EC0006FF47873B3EB625212D94FEAC12343F047
:100ED000004343EA505311F0004F23FA02F018BFC9
:100EE000404270474FF00000704750EA013005D192
:100EF00011F0004008BF6FF0004070474FF0000055
:100F0000704700BF00B585B000230193029303939F
:100F10001748184A02604FF48072826001220273FF
:100F200003754FF46022C26143600223036100F045
:100F3000CBFCA0B90123019302930023039301A9E1
:100F40000B4800F0F3FB68B902230193029301A957
:100F5000074800F0EBFB40B905B05DF804FB00F07A
:100F6000FBF8E7E700F0F8F8EEE700F0F5F8F3E754
:100F7000580400200024014010B586B000230293DD
:100F800003930493059302681D4B9A4201D006B067
:100F900010BD044603F56C439A6942F400729A61ED
:100FA0009A6902F400720092009A9A6942F004026F
:100FB0009A619B6903F004030193019B062302934A
:100FC0000323039302A90F4800F046FE0E480F4B7F
:100FD00003600023436083608022C2604FF400728C
:100FE00002614FF4006242618361C36100F05CFD05
:100FF00018B9054B23625C62C9E700F0ADF8F8E769
:10100000002401400008014088040020080002403C
:1010100000B583B00A4B5A6942F001025A615B691C
:1010200003F001030193019B002211460B2000F005
:10103000E1FC0B2000F016FD03B05DF804FB00BFDF
:101040000010024010B588B000220492059206926A
:101050000792174B996941F020019961996901F054
:10106000200101910199996941F0040199619969FF
:1010700001F0040102910299996941F00801996116
:101080009B6903F008030393039B0A4C0821204645
:1010900000F0F4FE08230493012305930693022332
:1010A000079304A9204600F0D7FD08B010BD00BF8B
:1010B000001002400008014008B50B480B4B0360CC
:1010C0000B4B436000238360C3604FF48042026196
:1010D00043618361C361036201F034F900B908BD63
:1010E00000F03AF8FBE700BFCC04002000540040B9
:1010F000A086010010B586B00023029303930493E9
:1011000005930268114B9A4201D006B010BD104CF5
:10111000A36943F00803A361A36903F008030093E4
:10112000009BC0230293122303930323059302A978
:10113000084800F091FDE36943F40013E361E369BB
:1011400003F400130193019BDFE700BF005400404C
:1011500000100240000C014072B6FEE700B595B0E9
:10116000282200210DEB020002F01CFF0023059352
:1011700006930793089309930193029303930493AF
:1011800001220A924FF480330B930E9202221192A5
:1011900012934FF4E01313930AA801F02FFCC8B97F
:1011A0000F23059302210691002307934FF48062D9
:1011B0000892099305A801F053FE68B90223019330
:1011C0004FF40043039301A801F026FF30B915B096
:1011D0005DF804FBFFF7C0FFFFF7BEFFFFF7BCFFA2
:1011E00030B583B000F06AFAFFF7B8FFFFF72AFFC7
:1011F000FFF70EFFFFF786FEFFF75EFF00F0BCF97A
:1012000000F046F900F09AF8234B93E8030002AB94
:1012100003E90300214C0021204602F0FDFA0421DD
:10122000204602F0F9FA0821204602F0F5FA0122E0
:1012300008211B4800F022FE23684FF461725A63B4
:1012400000259D63DD63C82000F05CFA00240DE0FA
:1012500002F022FCFFF742FA4FF06651FFF792FAD4
:1012600001462046FFF786F904460135632DEFDD80
:101270000C492046FFF73AFB0B49FFF783FA024679
:101280000A4B0B490B4802F0F5FD642000F03AFAD6
:10129000094801F0FFFFFEE718550008200500206F
:1012A000000801400000C842DB0FC94000001041A7
:1012B0000000E040000600206805002082B00E4BD0
:1012C0009A6942F001029A619A6902F00102009261
:1012D000009ADA6942F08052DA61DB6903F08053E8
:1012E0000193019B054A536823F0E06343F00073C8
:1012F000536002B0704700BF001002400000014080
:10130000FEE7FEE7FEE7FEE7FEE77047704770473F
:1013100008B500F0E5F908BD08B5024800F0FAFB91
:1013200008BD00BF8804002008B5024801F0EBFFAB
:1013300008BD00BF680500207047000000B587B0F9
:10134000002302930393049305930093019315489C
:10135000154A026011224260836040F2E732C260A7
:1013600003618023836102F0C5F890B94FF4805384
:10137000029302A90B4802F0C1F968B90023009357
:1013800001936946074802F0B5FA40B907B05DF825
:1013900004FBFFF7E1FEE9E7FFF7DEFEEEE7FFF70C
:1013A000DBFEF3E7680500200004004000B583B0D1
:1013B0000368B3F1804F05D0124A93420ED003B0B8
:1013C0005DF804FB03F50433DA6942F00102DA61E7
:1013D000DB6903F001030093009BF0E70A4BDA6935
:1013E00042F00202DA61DB6903F002030193019B20
:1013F000002211461D2000F0FDFA1D2000F032FBF6
:10140000DDE700BF000400400010024010B586B0C8
:10141000002302930393049305930368B3F1804F71
:1014200001D006B010BD03F504339A6942F00802FA
:101430009A619A6902F008020092009A9A6942F051
:1014400004029A619B6903F004030193019B4FF42A
:101450008163029302240394059402A9094800F0D1
:10146000FBFB4FF4004302930394059402A9064842
:1014700000F0F2FB054A536843F0E06343F4407325
:101480005360CEE7000C014000080140000001401D
:1014900000B58FB000230A930B930C930D93089320
:1014A000099301930293039304930593069307937F
:1014B00030484FF0804202604360202282604FF447
:1014C000E162C2600361836102F014F8002839D13F
:1014D0004FF480530A930AA9264802F00FF9002816
:1014E00033D1244802F032F8002831D10023089388
:1014F000099308A91F4802F0FDF960BB602301931E
:10150000002202920392059201A91A4802F07CF887
:1015100020BB04220DEB0201164802F075F800BB57
:10152000082201A9134802F06FF8E8B90C2201A9BA
:10153000104802F069F8D0B90E48FFF767FF0FB006
:101540005DF804FBFFF708FEC2E7FFF705FEC8E7FA
:10155000FFF702FECAE7FFF7FFFDCFE7FFF7FCFD4D
:10156000D7E7FFF7F9FDDBE7FFF7F6FDDEE7FFF76B
:10157000F3FDE1E72005002008B50A480A4B0360A7
:101580004FF4E133436000238360C36003610C22A6
:1015900042618361C36102F02FFA00B908BDFFF711
:1015A000DBFDFBE7B00500200038014010B586B038
:1015B000002302930393049305930268174B9A4206
:1015C00001D006B010BD03F558439A6942F4804239
:1015D0009A619A6902F480420092009A9A6942F0F4
:1015E00004029A619B6903F004030193019B4FF489
:1015F000007302930223039303230593084C02A96B
:10160000204600F029FB4FF48063029300230393EC
:10161000049302A9204600F01FFBD2E700380140E6
:1016200000080140FFF788FE0B480C490C4A0023D4
:1016300002E0D458C4500433C4188C42F9D3094A88
:10164000094C002301E013600432A242FBD302F0F4
:1016500085FCFFF7C5FD7047000000203C0400201A
:10166000345700083C04002080060020FEE70000FC
:1016700010B504460E4B18784FF47A73B3FBF0F3B1
:101680000C4A1068B0FBF3F000F0FAF968B90F2CBF
:1016900001D901200AE0002221464FF0FF3000F07E
:1016A000A9F9054B1C60002000E0012010BD00BF1F
:1016B00004000020000000200800002008B5074AB0
:1016C000136843F010031360032000F081F90F202A
:1016D000FFF7CEFFFFF7F2FD002008BD002002401B
:1016E000034A1168034B1B780B441360704700BF1B
:1016F000F805002004000020014B1868704700BF67
:10170000F805002038B50446FFF7F6FF0546B4F1AA
:10171000FF3F02D0044B1B781C44FFF7EDFF401B3A
:10172000A042FAD338BD00BF0400002030B482B01C
:101730000022019290F82420012A00F091800346B3
:10174000012280F824204A68062A2DD80468606B9C
:1017500002EB8202053A4FF01F0C0CFA02FC20EA61
:101760000C000D6805FA02F2024362630A68092A56
:101770003AD91C68E06802EB42021E3A4FF0070CAF
:101780000CFA02FC20EA0C008D6805FA02F2024312
:10179000E2600A68103A012A36D90020002283F854
:1017A000242002B030BC70470C2A0ED80568286B84
:1017B00002EB8202233A1F24944020EA04000C68C2
:1017C00004FA02F202432A63D0E70568E86A02EBF2
:1017D0008202413A1F24944020EA04000C6804FA73
:1017E00002F20243EA62C1E71C68206902EB42028E
:1017F0004FF0070C0CFA02FC20EA0C008D6805FA89
:1018000002F202432261C4E71A681648824205D0F8
:101810009A6A42F020029A620120BFE7906810F4B1
:10182000000F1BD1906840F4000090600A68102AF5
:1018300001D00020B2E70C4A12680C49A1FB021249
:10184000920C02EB82025200019202E0019A013AEC
:101850000192019A002AF9D100209FE700209DE71C
:1018600002209EE7002401400000002083DE1B438D
:1018700038B503689A6812F0010F01D1002038BD15
:1018800004469A6822F001029A60FFF735FF054688
:1018900023689B6813F0010F13D0FFF72DFF431B44
:1018A000022BF5D923689B6813F0010FF0D0A36ACF
:1018B00043F01003A362E36A43F00103E3620120F3
:1018C000DDE70020DBE7000000287BD070B5044690
:1018D000836A002B4DD02046FFF7CAFFA36A13F09E
:1018E000100369D1002867D1A26A22F4885222F03D
:1018F000020242F00202A2626268E1690A43217BAD
:1019000042EA4102A568B5F5807F02D0012D36D0AC
:101910001D46267D012E35D02668716821F4694167
:10192000294371602568AE68274931401143A96099
:10193000A168B1F5807F01D0012902D12369013B63
:101940001B052568E96A21F470010B43EB622368EB
:1019500099681E4B0B409A4225D0A36A23F01203CC
:1019600043F01003A362E36A43F00103E362012042
:1019700027E0C36280F82430FFF7FEFAABE74FF4AC
:101980008075C6E731B9A169013945EA413141F4B1
:101990000065C1E7A16A41F02001A162E16A41F05E
:1019A0000101E162B8E70023E362A36A23F00303C5
:1019B00043F00103A36204E0A36A43F01003A362AF
:1019C000012070BD01207047FDF7E1FFFE0E1FFFF3
:1019D000074AD36823F4E0631B041B0C000200F4E5
:1019E000E060034343F0BF6343F40033D3607047C8
:1019F00000ED00E000B5194BDB68C3F30223C3F12F
:101A0000070CBCF1040F28BF4FF0040C03F1040EC7
:101A1000BEF1060F18D9033B4FF0FF3E0EFA0CFC47
:101A200021EA0C0199400EFA03F322EA0303194359
:101A300000280BDB0901C9B200F1604000F56140EC
:101A400080F800135DF804FB0023E5E700F00F00C9
:101A50000901C9B2024B1954F4E700BF00ED00E0E0
:101A600014ED00E0002807DB00F01F02400901230D
:101A70009340024A42F82030704700BF00E100E086
:101A80000138B0F1807F0BD24FF0E0235861054A56
:101A9000F02182F823100020986107221A61704714
:101AA0000120704700ED00E060B310B40246016809
:101AB000154B0B441548A0FB03031B099B00136443
:101AC000134BD363022382F82130086820F47F503F
:101AD00020F03000536894682343D468234314698A
:101AE00023435469234394692343D4692343034321
:101AF0000B6000209063012382F8213082F82000DF
:101B000010BC704701207047F8FFFDBFCDCCCCCC96
:101B10000000024038B5C36B1A6804682568016C80
:101B200004238B40134235D015F0040F32D02368C4
:101B300013F0200F03D1236823F00403236003680C
:101B4000434A934214D01432934218D01432934231
:101B500017D01432934217D01432934217D0143254
:101B6000934202D04FF0806203E04FF4800200E025
:101B70000422384B5A60C36A03B1984738BD4022EB
:101B8000F7E74FF48062F4E74FF48042F1E74FF457
:101B90008022EEE702238B4013423CD015F0020F67
:101BA00039D0236813F0200F06D1236823F00A03ED
:101BB0002360012380F821300368254A934214D022
:101BC000143293421CD0143293421BD014329342ED
:101BD0001BD0143293421BD01432934202D04FF0E8
:101BE000007203E04FF4001200E00222194B5A6029
:101BF000002380F82030836A002BBFD09847BDE7D0
:101C00002022F3E74FF40072F0E74FF40052EDE7C3
:101C10004FF40032EAE7082303FA01F11142ADD094
:101C200015F0080FAAD0236823F00E032360026C7E
:101C3000C16B012303FA02F24A60836380F821300A
:101C4000002380F82030036B002B97D0984795E74E
:101C5000080002400000024070B582B00024A44693
:101C6000A6E0804DAA4210D007D97F4DAA420CD0E1
:101C700005F58035AA4208D013E0A5F58015AA42E3
:101C800003D005F57025AA4207D18A68002A58D0EA
:101C9000012A51D04361082403E0A5F58015AA422A
:101CA000F3D0BEF1FF0F4ED80646BEF1FF0F4CD861
:101CB0004FEA8C0233680F25954023EA050304FAA6
:101CC00002F2134333604B6813F0805F6ED0674BB2
:101CD0009A6942F001029A619B6903F00103019342
:101CE000019B4FEA9C02951C614B53F825600CF058
:101CF00003039D000F23AB4026EA03065D4B984289
:101D000029D003F58063984200F08E8003F580634C
:101D1000984200F08B8003F58063984219D0042329
:101D20001AE0CC68BDE7CC680434BAE7CC68083464
:101D3000B7E7CC680C34B4E703610824B1E70024AA
:101D4000AFE70424ADE7061DAFE7ACF1080292004F
:101D5000B0E7032300E00023AB4033430232444D9D
:101D600045F822304B6813F4801F61D0424A9368D3
:101D700043EA0E0393604B6813F4001F5ED03E4AA3
:101D8000D36843EA0E03D3604B6813F4003F5BD083
:101D9000394A536843EA0E0353604B6813F4803F9B
:101DA00058D0354A136843EA0E0313600CF1010C56
:101DB0000A6832FA0CF353D0012303FA0CF302EA57
:101DC000030E33EA0202F1D14A68122A3FF649AF04
:101DD000122A3FF666AF01A555F822F08B1C0008C9
:101DE000231D00082D1D00083F1D0008A31C00082E
:101DF000A31C0008A31C0008A31C0008A31C0008C7
:101E0000A31C0008A31C0008A31C0008A31C0008B6
:101E1000A31C0008A31C0008A31C0008A31C0008A6
:101E2000271D0008331D0008012395E7022393E7CF
:101E3000114A936823EA0E0393609CE70E4AD36825
:101E400023EA0E03D3609FE70B4A536823EA0E038D
:101E50005360A2E7084A136823EA0E031360A5E75C
:101E600002B070BD000022100000311000100240CE
:101E70000000014000080140000401400AB1016176
:101E8000704709040161704703685A6912F4806F52
:101E900001D1002070476FF480625A610023036310
:101EA000202280F83D2080F83E30026C42F004028F
:101EB000026480F83C30012070472DE9F04106466D
:101EC0000C46174698463BE0FFF716FC069BC01AE7
:101ED000404502D8B8F1000F32D1012D18D0336837
:101EE0009B6924EA03039BB2B3FA83F35B099F4225
:101EF00026D100233363202286F83D2086F83E3029
:101F0000326C42F02002326486F83C30012027E037
:101F100033685B6924EA03039BB2B3FA83F35B097A
:101F2000E5E733685B6924EA030C1FFA8CFCBCFA12
:101F30008CFC4FEA5C1C674511D1B8F1FF3FC3D15F
:101F4000C4F30745012DECD033689B6924EA030CE8
:101F50001FFA8CFCBCFA8CFC4FEA5C1CEBE70020FF
:101F6000BDE8F0812DE9F84305460E4690469946B6
:101F700053E01A6842F400721A602B686FF48062B2
:101F80005A6100232B63202285F83D2085F83E30DE
:101F90002A6C42F004022A6485F83C3001204AE0B1
:101FA000FFF7AAFBA0EB0900404502D8B8F1000FEB
:101FB00033D1012F17D02B689B6926EA03039BB20C
:101FC000003B18BF012343B300232B63202285F875
:101FD0003D2085F83E302A6C42F020022A6485F8C4
:101FE0003C30012027E02B685B6926EA03039BB2A3
:101FF000003B18BF0123E6E72B689C6926EA04042E
:10200000A4B2003C18BF0124A4B12B685A6912F491
:10201000806FAED1B8F1FF3FC2D1C6F30747012FA1
:10202000EAD12B685C6926EA0404A4B2003C18BF1C
:102030000124E9E70020BDE8F8830000F0B583B093
:1020400004460D4616461F46C36A082B0DD0012BC9
:102050000BD013F5803F08D0036B122B0AD1026816
:10206000136843F48073136004E02268136843F438
:10207000807313600097334600224FF00111204611
:10208000FFF71BFF80B92369B3F5804F16D1236892
:1020900005F0FE051D613B46324613492046FFF719
:1020A00061FFF8B903B0F0BD23681B6813F4807FAB
:1020B00002D04FF4007323640320F3E7EB1122688E
:1020C00003F0060343F0F00313613B463246074931
:1020D0002046FFF747FF18B92368EDB21D61DAE724
:1020E0000120DFE70120DDE7020001000800010018
:1020F0002DE9F04184B004460D4616461F46C26ADB
:1021000001680B6843F480630B60082A0DD0012A34
:102110000BD012F5803F08D0036B112B0AD1026857
:10212000136843F48073136004E02268136843F477
:10213000807313600097334600224FF00111204650
:10214000FFF7BBFE98B92369B3F5804F19D1236817
:1021500045F00105EDB21D613B4632462A49204655
:10216000FFF700FF00284CD104B0BDE8F0812368E0
:102170001B6813F4807F02D04FF4007323640320A4
:10218000F2E74FEAE51808F00608236848F0F00285
:102190001A613B4632461D492046FFF7E3FE08B16F
:1021A0000120E1E72368EDB21D613B463246164946
:1021B0002046FFF7D7FE08B10120D5E700220392A1
:1021C000236859690391996903910399196841F446
:1021D00080711960009733464FF001112046FFF7D8
:1021E0006CFE20B9226848F0F1031361B4E723685C
:1021F0001B6813F4807F02D04FF400732364032024
:10220000B2E70120B0E700BF0200010008000100B2
:1022100070B504460D46164623685B6913F0800FBF
:1022200021D12046FFF730FEF8B9B5F1FF3FF3D0DA
:10223000FFF762FA801BA84201D8002DECD1236879
:102240005B6913F0800FE7D100232363202284F819
:102250003D2084F83E30226C42F02002226484F853
:102260003C30012000E0002070BD0120FCE770B58B
:1022700004460D46164623685B6913F0040F21D10E
:102280002046FFF701FEF8B9B5F1FF3FF3D0FFF7A5
:1022900033FA801BA84201D8002DECD123685B697A
:1022A00013F0040FE7D100232363202284F83D209C
:1022B00084F83E30226C42F02002226484F83C30E4
:1022C000012000E0002070BD0120FCE770B504464D
:1022D0000D46164614E06FF010025A610023236386
:1022E000202284F83D2084F83E30226C226484F859
:1022F0003C30012025E023685B6913F0400F10D0CB
:102300002368586910F0400F1AD1586910F0100F67
:10231000E1D1FFF7F1F9801BA842ECD8002DEFD1F5
:10232000E9E700232363202284F83D2084F83E302F
:10233000226C42F02002226484F83C30012000E04C
:10234000002070BD002800F0CC8070B5044690F8E5
:102350003D30002B77D0242384F83D302268136869
:1023600023F0010313602268136843F400431360F1
:102370002268136823F40043136000F02DFE6268A6
:102380005A4B9A4264D85A4B98428CBF002301237F
:10239000002B40F0A8805749A1FB00318B0C256829
:1023A0006A6822F03F0242EA91426A6021680A6A42
:1023B00022F03F0266684D4DAE424FD801331343C1
:1023C0000B622168CA6922F44F4222F0FF0266685C
:1023D000464B9E424CD8431E7600B3FBF6F30133C6
:1023E00040F6FC70034278D0C3F30B031343CB6178
:1023F00021680B6823F0C003E269206A024313439B
:102400000B6021688B6823F4034323F0FF032269E8
:10241000E068024313438B602168CB6823F0FF031D
:102420006269A06902431343CB602268136843F0DA
:102430000103136000202064202384F83D302063D2
:1024400084F83E0070BD80F83C30FEF753FE82E712
:10245000294B98428CBF0023012399E74FF49675CE
:1024600005FB03F3254DA5FB03539B090133A6E7A9
:10247000A368BBB9451E06EB460CB5FBFCF5013560
:10248000C5F30B05B5FA85F56D0945BBC3B9013830
:1024900006EB4603B0FBF3F30133C3F30B0343F442
:1024A0000043A3E7451E06EB860C0CEB8C0CB5FB3A
:1024B000FCF50135C5F30B05B5FA85F56D09E4E7C3
:1024C000013806EB860303EB8303B0FBF3F3013320
:1024D000C3F30B0343F4404388E7042386E7012357
:1024E00084E7012070470120ACE700BFA08601000F
:1024F0007F841E0083DE1B43FF083D00D34D621026
:102500002DE9F04385B004460F46914698460C9E4F
:10251000FFF7F2F8054694F83D00C0B2202804D039
:102520000227384605B0BDE8F08300951923012243
:102530004F492046FFF7C1FC002840F0928094F8F4
:102540003C30012B00F08F80012384F83C3023685D
:102550001A6812F0010F03D11A6842F001021A60E2
:102560002268136823F400631360212384F83D304C
:10257000102384F83E3000232364C4F82490A4F888
:102580002A80638D23853B4BE3622B4632463946D6
:102590002046FFF753FD0746002866D1002303932A
:1025A00023685A6903929B690393039B11E0236C90
:1025B000042B01D00127B4E72268136843F40073A9
:1025C0001360F7E72A4631462046FFF750FE002801
:1025D0002ED1238D002B36D02A4631462046FFF7D8
:1025E00017FE0028E3D1626A236812781A61606AD4
:1025F000431C6362618D89B2013989B26185238D83
:10260000013B9BB223852268516911F0040FD9D098
:10261000002BD7D043781361636A01336362638D03
:102620009BB2013B9BB26385238D013B2385C9E7A8
:10263000236C042B01D0012773E72268136843F44D
:1026400000731360F7E72268136843F400731360A4
:10265000202384F83D30002384F83E3084F83C3059
:102660005FE702275DE702275BE7012759E700BF25
:10267000020010000000FFFF2DE9F04389B004467E
:102680000F4691469846109E00230793FFF734F8B3
:10269000054694F83D00C0B2202804D002273846F1
:1026A00009B0BDE8F0830095192301228049204636
:1026B000FFF703FC002840F07A8194F83C30012BAE
:1026C00000F07781012384F83C3023681A6812F007
:1026D000010F03D11A6842F001021A6022681368E0
:1026E00023F400631360222384F83D30102384F820
:1026F0003E3000232364C4F82490A4F82A80638D1C
:1027000023856C4BE3622B46324639462046FFF761
:10271000EFFC0746002840F04E81238D5BB9039300
:1027200023685A6903929A690392039A1A6842F4D9
:1027300000721A60F3E0012B0FD0022B21D0226827
:10274000136843F4806313600023069323685A6977
:1027500006929B690693069BE1E02268136823F4C6
:102760008063136072B60023049323685A6904924D
:102770009A690492049A1A6842F400721A6062B666
:10278000CDE02268136843F40063136072B600233F
:10279000059323685A6905929A690592059A1A6801
:1027A00022F480621A6062B6B9E02A4631462046B9
:1027B000FFF78CFD002840F0008123681A69636AE6
:1027C0001A70636A01336362238D013B2385638D35
:1027D0009BB2013B9BB26385A1E00095334600228A
:1027E00035492046FFF769FB002840F0EA8022685F
:1027F000136823F48063136072B623681A69636AEE
:102800001A70636A01336362238D013B2385638DF4
:102810009BB2013B9BB26385284B1B68DB08284AAF
:10282000A2FB03231B0A03EB8303C3EBC30307933E
:102830000799013907910799002928D023685A6917
:1028400012F0040FF4D01A6842F400721A60236880
:102850001A69636A1A70636A01336362238D013BEC
:102860002385638D9BB2013B9BB2638562B623686F
:102870001A69636A1A70636A01336362238D013BCC
:102880002385638D9BB2013B9BB2638547E00023A8
:102890002363202284F83D2084F83E30226C42F0ED
:1028A0002002226462B684F83C300127F7E600BFBC
:1028B000020010000000FFFF0400010000000020E3
:1028C00089B5F8142A4631462046FFF7FFFC002858
:1028D00079D123681A69636A1A70636A0133636283
:1028E000228D013A92B22285638D9BB2013B9BB24D
:1028F00063852368596911F0040F10D0032A48D06A
:1029000023681A69636A1A70636A01336362238DEC
:10291000013B2385638D9BB2013B9BB26385218D77
:1029200000293BD00329CDD801293FF43EAF02292D
:102930007FF453AF00953346002224492046FFF729
:10294000BCFA00283BD172B62268136843F40073C6
:10295000136023681A69636A1A70636A01336362D9
:10296000238D013B2385638D9BB2013B9BB2638525
:1029700062B623681A69636A1A70636A0133636214
:10298000238D013B2385638D9BB2013B9BB2638505
:10299000C5E71A6822F480621A60B1E7202384F840
:1029A0003D30002384F83E3084F83C3077E602273F
:1029B00075E6022773E6012771E601276FE6012716
:1029C0006DE601276BE6012769E600BF0400010000
:1029D00082B0084B1B68084AA2FB03235B0A00FB7A
:1029E00003F3019300BF019B5A1E0192002BF9D102
:1029F00002B0704700000020D34D6210002800F0A4
:102A0000F18170B582B00446036813F0010F2CD039
:102A1000994B5B6803F00C03042B1DD0964B5B684D
:102A200003F00C03082B12D06368B3F5803F41D04C
:102A3000002B55D103F1804303F504331A6822F4C7
:102A400080321A601A6822F480221A6037E08A4BBA
:102A50005B6813F4803FE7D0874B1B6813F4003F9B
:102A600003D06368002B00F0BF81236813F0020FCE
:102A700075D0814B5B6813F00C0F5FD07E4B5B68A9
:102A800003F00C03082B54D02369002B00F08A803C
:102A90007A4B01221A60FEF72FFE0546764B1B6823
:102AA00013F0020F75D1FEF727FE401B0228F5D95F
:102AB00003209EE1704A136843F480331360636817
:102AC00043B3FEF719FE05466B4B1B6813F4003F3A
:102AD000CBD1FEF711FE401B6428F5D9032088E115
:102AE000B3F5A02F09D0644B1A6822F480321A6023
:102AF0001A6822F480221A60E1E703F18043A3F50B
:102B00003C331A6842F480221A601A6842F4803218
:102B10001A60D4E7FEF7F0FD0546574B1B6813F427
:102B2000003FA2D0FEF7E8FD401B6428F5D9032042
:102B30005FE1514B5B6813F4803FA5D14E4B1B689E
:102B400013F0020F03D02369012B40F04F814A4A52
:102B5000136823F0F803616943EAC1031360236833
:102B600013F0080F33D0A369002B5CD0434B012234
:102B7000C3F88024FEF7C0FD05463F4B5B6A13F0A7
:102B8000020F21D1FEF7B8FD401B0228F5D9032022
:102B90002FE1394A136823F0F803616943EAC1035E
:102BA0001360DCE7354B00221A60FEF7A5FD0546F1
:102BB000314B1B6813F0020FD1D0FEF79DFD401B77
:102BC0000228F5D9032014E10120FFF701FF236853
:102BD00013F0040F00F09680274BDB6913F0805F41
:102BE00034D1254BDA6942F08052DA61DB6903F0B7
:102BF00080530193019B0125214B1B6813F4807FB7
:102C000026D0E368012B3DD0002B53D103F1804344
:102C100003F504331A6A22F001021A621A6A22F0DA
:102C200004021A6233E0154B0022C3F88024FEF739
:102C300063FD0546104B5B6A13F0020FC7D0FEF729
:102C40005BFD401B0228F5D90320D2E00025D3E725
:102C50000B4A136843F480731360FEF74DFD06467C
:102C6000074B1B6813F4807FCBD1FEF745FD801B1B
:102C70006428F5D90320BCE0001002400000424265
:102C8000007000405F4A136A43F001031362E36877
:102C900033B3FEF731FD06465A4B1B6A13F0020FA1
:102CA0002FD1FEF729FD801B41F288339842F3D9DA
:102CB00003209EE0052B09D0524B1A6A22F0010234
:102CC0001A621A6A22F004021A62E0E74D4B1A6A8D
:102CD00042F004021A621A6A42F001021A62D6E74E
:102CE000FEF70AFD0646474B1B6A13F0020F08D099
:102CF000FEF702FD801B41F288339842F3D903208E
:102D000077E0E5B9E369002B72D03E4A526802F0E1
:102D10000C02082A56D0022B17D03B4B00221A6611
:102D2000FEF7EAFC0446374B1B6813F0007F47D0E0
:102D3000FEF7E2FC001B0228F5D9032059E0314AD6
:102D4000D36923F08053D361DCE72F4B00221A664E
:102D5000FEF7D2FC05462B4B1B6813F0007F06D014
:102D6000FEF7CAFC401B0228F5D9032041E0236A84
:102D7000B3F5803F1AD023494B6823F47413226AB9
:102D8000606A024313434B601F4B01221A66FEF731
:102D9000B3FC04461B4B1B6813F0007F0ED1FEF7FB
:102DA000ABFC001B0228F5D9032022E0154A53682A
:102DB00023F40033A1680B435360DCE7002018E0E4
:102DC000002016E0012B16D00E4B5B6803F4803117
:102DD000226A914211D103F47013626A93420ED1B8
:102DE000002006E001207047012002E0012000E001
:102DF000002002B070BD0120FBE70120F9E70120AF
:102E0000F7E700BF00100240000042420F4B5B6832
:102E100003F00C02082A01D00D487047C3F3834227
:102E20000C49885C13F4803F0BD0084B5B68C3F3FC
:102E30004043094AD35C064A02FB00F0B0FBF3F0C2
:102E40007047064B03FB00F0704700BF00100240C4
:102E500000127A00385500084855000800093D0066
:102E6000002800F0A08070B50D460446524B1B6848
:102E700003F007038B420BD24F4A136823F007037A
:102E80000B431360136803F007038B4240F08D80FF
:102E9000236813F0020F17D013F0040F04D0474A31
:102EA000536843F4E0635360236813F0080F04D0C1
:102EB000424A536843F460535360404A536823F0D6
:102EC000F003A1680B435360236813F0010F31D066
:102ED0006368012B20D0022B25D0384A126812F0EB
:102EE000020F64D035494A6822F0030213434B6055
:102EF000FEF702FC0646314B5B6803F00C03626888
:102F0000B3EB820F16D0FEF7F7FB801B41F288333C
:102F10009842F0D9032045E0284A126812F4003F95
:102F2000E0D101203EE0254A126812F0007FD9D19D
:102F3000012037E0204B1B6803F00703AB420AD99E
:102F40001D4A136823F007032B431360136803F033
:102F50000703AB422DD1236813F0040F06D0174AA4
:102F6000536823F4E063E1680B435360236813F074
:102F7000080F07D0114A536823F46053216943EACC
:102F8000C1035360FFF742FF0C4B5B68C3F30313AD
:102F90000B4AD35CD8400B4B18600B4B1868FEF7FC
:102FA00067FB002070BD012070470120FAE7012077
:102FB000F8E70120F6E700BF0020024000100240C1
:102FC000205500080000002008000020014B186870
:102FD000704700BF0000002008B5FFF7F7FF044B63
:102FE0005B68C3F30223034AD35CD84008BD00BF2B
:102FF000001002403055000808B5FFF7E7FF044B0A
:103000005B68C3F3C223034AD35CD84008BD00BF4A
:10301000001002403055000870B582B004460368C5
:1030200013F0010F36D03F4BDB6913F0805F49D1BD
:103030003C4BDA6942F08052DA61DB6903F080537D
:103040000193019B0125384B1B6813F4807F3BD013
:10305000344B1B6A13F4407313D0626802F440725D
:103060009A420ED02F4A136A23F440702F4901264A
:10307000C1F840640026C1F84064106213F0010FEB
:1030800036D1284A136A23F4407361680B431362F4
:10309000002D3ED1236813F0020F06D0214A536859
:1030A00023F44043A1680B435360236813F0100FCF
:1030B00034D01C4A536823F48003E1680B43536007
:1030C00000202CE00025BEE7174A136843F4807304
:1030D0001360FEF711FB0646134B1B6813F4807F49
:1030E000B6D1FEF709FB801B6428F5D9032016E052
:1030F000FEF702FB06460B4B1B6A13F0020FC0D112
:10310000FEF7FAFA801B41F288339842F3D9032084
:1031100005E0D36923F08053D361BBE7002002B000
:1031200070BD00BF0010024000700040000042422D
:1031300070B4036A026A22F0010202624668826980
:1031400022F073020C6844EA020523F002028B6845
:1031500013430D4CA04209D00B4CA0420DD0466049
:1031600085614A684263036270BC704723F00803BC
:10317000CA68134323F00403EEE726F440764A6955
:1031800032438E691643EAE7002C014030B4036AEB
:10319000026A22F4807202624568C26922F07302F8
:1031A0000C68224323F400738C6843EA04230F4C19
:1031B000A04209D00D4CA0420ED04560C2614A68C1
:1031C000C263036230BC704723F40063CC6843EAF7
:1031D000042323F48063EDE725F440554C6945EA68
:1031E00004158C6945EA0415E7E700BF002C01408F
:1031F00030B4036A026A22F4805202624468C269EF
:1032000022F4E6420D6842EA052223F400538D6859
:1032100043EA0533074DA84206D04460C2614A68BC
:103220000264036230BC704724F480444D6944EA70
:103230008514F2E7002C014010B4036A046A24F0FC
:1032400001040462846924F0F00C4CEA021223F0B9
:103250000A030B438261036210BC704710B4036A17
:10326000046A24F010040462846924F4704C4CEA6B
:10327000023223F0A00343EA01138261036210BC0F
:103280007047836823F070030B4343F007038360A8
:103290007047000090F83D30DBB2012B27D10223AC
:1032A00080F83D300268D36843F00103D3600368BF
:1032B000114A934210D0B3F1804F0DD0A2F5943251
:1032C000934209D002F58062934205D01A6842F019
:1032D00001021A60002070479A6802F00702062A6D
:1032E00007D01A6842F001021A60002070470120DE
:1032F00070470020704700BF002C014070477047A6
:1033000070477047704710B5044603681A6912F099
:10331000020F11D0DA6812F0020F0DD06FF0020226
:103320001A610123037703689B6913F0030F70D0C0
:10333000FFF7E6FF0023237723681A6912F0040FD2
:1033400012D0DA6812F0040F0ED06FF004021A6186
:103350000223237723689B6913F4407F5FD02046C4
:10336000FFF7CEFF0023237723681A6912F0080FB6
:1033700012D0DA6812F0080F0ED06FF008021A614E
:10338000042323772368DB6913F0030F4ED0204614
:10339000FFF7B6FF0023237723681A6912F0100F96
:1033A00012D0DA6812F0100F0ED06FF010021A610E
:1033B000082323772368DB6913F4407F3DD0204640
:1033C000FFF79EFF0023237723681A6912F0010F8D
:1033D00003D0DA6812F0010F36D123681A6912F0AF
:1033E000800F03D0DA6812F0800F34D123681A6995
:1033F00012F0400F03D0DA6812F0400F32D1236888
:103400001A6912F0200F03D0DA6812F0200F30D1C1
:1034100010BDFFF774FF2046FFF773FF8AE72046D1
:10342000FFF76DFF2046FFF76CFF9BE72046FFF795
:1034300066FF2046FFF765FFACE72046FFF75FFF1A
:103440002046FFF75EFFBDE76FF001021A612046DC
:1034500000F066FDC1E76FF080021A61204600F0BF
:1034600080FAC3E76FF040021A612046FFF74AFF77
:10347000C5E76FF020021A61204600F071FAC7E735
:1034800003681B4A90420AD0B0F1804F07D0A2F5E2
:103490009432904203D002F58062904203D123F02F
:1034A00070034A681343124A90420AD0B0F1804F29
:1034B00007D0A2F59432904203D002F58062904288
:1034C00003D123F44073CA68134323F080034A698D
:1034D000134303608B68C3620B688362044B98429A
:1034E00002D00123436170470B690363F9E700BF12
:1034F000002C014040B310B5044690F83D30F3B1C4
:10350000022384F83D30214651F8040BFFF7B8FF41
:10351000012384F8463084F83E3084F83F3084F844
:10352000403084F8413084F8423084F8433084F8E5
:10353000443084F8453084F83D30002010BD80F8D8
:103540003C30FDF733FFDBE70120704740B310B597
:10355000044690F83D30F3B1022384F83D30214613
:1035600051F8040BFFF78CFF012384F8463084F8F0
:103570003E3084F83F3084F8403084F8413084F89D
:10358000423084F8433084F8443084F8453084F87D
:103590003D30002010BD80F83C30FFF7AFFEDBE788
:1035A0000120704730B4036A026A22F010020262FE
:1035B0004468826922F4E6420D6842EA052223F05B
:1035C00020038D6843EA05130E4DA84209D00D4D26
:1035D000A8420ED0446082614A688263036230BCB4
:1035E000704723F08003CD6843EA051323F04003BE
:1035F000EDE724F440644D6944EA85048D6944EAAA
:103600008504E7E7002C014038B590F83C30012BE9
:1036100066D004460D46012380F83C300C2A5AD867
:10362000DFE802F0075959591B595959305959596E
:1036300044000068FFF77CFD2268936943F00803AB
:1036400093612268936923F004039361226893696C
:1036500029690B43936100203EE00068FFF7A2FF59
:103660002268936943F4006393612268936923F4A9
:103670008063936122689369296943EA0123936116
:10368000002029E00068FFF781FD2268D36943F03C
:103690000803D3612268D36923F00403D36122684D
:1036A000D36929690B43D361002015E00068FFF757
:1036B0009FFD2268D36943F40063D3612268D36914
:1036C00023F48063D3612268D369296943EA012323
:1036D000D361002000E00120002384F83C3038BD95
:1036E0000220FCE710B4846824F47F4C42EA0322F1
:1036F0000A4342EA0C02826010BC704790F83C30EA
:10370000012B78D010B50446012380F83C30022309
:1037100080F83D300268936823F47F4323F07703F9
:1037200093600B68602B4CD029D8402B54D00CD917
:10373000502B22D1CA6849680068FFF77DFD5021EF
:103740002068FFF79EFD002005E0202B0DD009D951
:10375000302B0AD00120012384F83D30002384F867
:103760003C3010BD0BB1102B05D119462068FFF776
:1037700088FD0020EFE70120EDE70120EBE7B3F53E
:10378000805F34D0B3F5005F0CD1CB684A6889689C
:103790000068FFF7A7FF2268936843F480439360B3
:1037A0000020D8E7702B24D1CB684A68896800686C
:1037B000FFF798FF2268936843F077039360002037
:1037C000C9E7CA6849680068FFF748FD60212068BA
:1037D000FFF757FD0020BEE7CA6849680068FFF799
:1037E0002BFD40212068FFF74CFD0020B3E70020AF
:1037F000B1E70120AFE70220704701F01F0101236C
:1038000003FA01FC036A23EA0C030362036A02FA67
:1038100001F10B430362704710B50446084651BBE3
:1038200094F83E30DBB2013B18BF0123002B5BD183
:10383000002839D1022384F83E3001220146206855
:10384000FFF7DBFF23682A4A93423DD02368284ACA
:1038500093423ED0B3F1804F3BD0A2F594329342D5
:1038600037D002F58062934233D01A6842F00102E9
:103870001A60002039E0042908D008290DD094F8F6
:103880004130DBB2013B18BF0123CFE794F83F3052
:10389000DBB2013B18BF0123C8E794F84030DBB22C
:1038A000013B18BF0123C1E7042805D0082807D031
:1038B000022384F84130C0E7022384F83F30BCE79C
:1038C000022384F84030B8E75A6C42F400425A644C
:1038D000BCE79A6802F00702062A07D01A6842F08D
:1038E00001021A60002000E0012010BD0020FCE76A
:1038F000002C014090F83C30012B2CD010B4012357
:1039000080F83C30022380F83D3003685A689C6898
:1039100022F0700C0A6842EA0C025A6003680F4AEF
:1039200093420AD0B3F1804F07D0A2F5943293426C
:1039300003D002F58062934204D124F080044A68E7
:1039400014439C60012380F83D30002380F83C3014
:10395000184610BC70470220704700BF002C014081
:103960007047704710B504460268136923F440534A
:10397000C1680B43136183680269134342691A43A8
:103980000168CB6823F4B05323F00C031343CB60DE
:103990000268536923F4407381690B4353610268E1
:1039A000134B9A4220D0FFF717FB024602EB82022C
:1039B00002EB820263689B00B2FBF3F20D48A0FBAE
:1039C00002314909642303FB11231B013233A0FB9D
:1039D00003235B0903F0F00202EB011203F00F0373
:1039E000216813448B6010BDFFF706FB0246DDE73C
:1039F000003801401F85EB5160B310B5044690F8C4
:103A0000413013B3242384F841302268D36823F46F
:103A10000053D3602046FFF7A5FF2268136923F403
:103A2000904313612268536923F02A03536122688B
:103A3000D36843F40053D36000206064202384F8EB
:103A4000413084F84230606310BD80F84030FDF7AB
:103A5000ADFDD7E70120704700B583B06423009324
:103A600093B20A4601460348FEF74AFD03B05DF8EB
:103A700004FB00BFCC04002000B583B06423009396
:103A800093B20A4640F001010248FEF7F5FD03B08B
:103A90005DF804FBCC04002010B582B00C238DF837
:103AA000073001220DF107016C20FFF7D5FF064C0E
:103AB000022221466C20FFF7DFFF2078637843EA7B
:103AC000002002B010BD00BFFC05002008B5FCF7C7
:103AD000A3FC00F07BFBFCF7F7FC08BD08B5FCF786
:103AE0009BFC00F021FBFCF7EFFC08BD38B5044659
:103AF0000846E168FCF73CFD054660600021FCF7E4
:103B0000DFFF28B961682068FCF73CFEA06038BD83
:103B100002492846FCF72EFD6060F3E7DB0FC94041
:103B20002DE9F843044685682846FFF7D7FF064687
:103B3000D4F814904946FCF725FE07462846FFF7BF
:103B4000C5FF0546D4F818804146FCF71BFE014628
:103B50003846FCF70DFDE06129464846FCF712FEA9
:103B6000054641463046FCF70DFE01462846FCF767
:103B700001FD2062BDE8F8832DE9F84F054606698E
:103B8000C469D0F820909E494846FCF7FBFD3146B9
:103B9000FCF7ACFE07469B492046FCF7F3FD824646
:103BA0004946FCF7E7FC9649FCF7ECFD3146FCF78B
:103BB0009DFE4FF07C51FCF7E5FD80469249204682
:103BC000FCF7E0FD04464946FCF7D4FC8C49FCF7C1
:103BD000D9FD3146FCF78AFE4FF07C51FCF7D2FD4F
:103BE000064649462046FCF789FF00284DD04FF095
:103BF000010B49465046FCF781FF002848D00124BC
:103C000000214846FCF77AFF002843D0012204EB4C
:103C10004B035B00DBB21344DBB2032B3CD0012B24
:103C20006ED0052B00F09880042B00F0BF80062B8F
:103C300000F0F08041467548FCF79AFC3946FCF7E5
:103C400099FC4FF07C51FCF79DFD0646014640462D
:103C5000FCF790FC044631466C48FCF789FCFCF705
:103C600057FFA88439462046FCF782FC0146674886
:103C7000FCF77EFCFCF74CFFE88421466348FCF728
:103C800077FCFCF745FF288530E04FF0000BB0E7EC
:103C90000024B5E70022BAE75C493046FCF76AFC2D
:103CA0003946FCF765FC4FF07C51FCF76BFD804614
:103CB0003146FCF75DFC044601463846FCF75AFCE9
:103CC000064641465148FCF753FCFCF721FFA88407
:103CD00021464E48FCF74CFCFCF71AFFE8843146BD
:103CE0004A48FCF745FCFCF713FF2885484B1B6846
:103CF000AA8C5A63EA8C9A632A8DDA63BDE8F88F3E
:103D000031464248FCF734FC4146FCF731FC4FF0A9
:103D10007C51FCF737FD044601463046FCF72AFC8F
:103D2000064601464046FCF725FC07463146374823
:103D3000FCF71EFCFCF7ECFEA88421463348FCF798
:103D400017FCFCF7E5FEE88439463048FCF710FC28
:103D5000FCF7DEFE2885C9E739462C48FCF708FC4D
:103D60004146FCF707FC4FF07C51FCF70BFD044685
:103D700001463846FCF7FEFB06464146FCF7F8FBD9
:103D800001462248FCF7F4FBFCF7C2FEA88421465A
:103D90001E48FCF7EDFBFCF7BBFEE88431461B48F0
:103DA000FCF7E6FBFCF7B4FE28859FE71749384689
:103DB000FCF7E0FB3146FCF7DBFB4FF07C51FCF7F6
:103DC000E1FC04463946FCF7D3FB07463146FCF7D5
:103DD000D1FB01460D48FCF7CBFBFCF799FEA8840C
:103DE00039460A48FCF7C4FBFCF792FEE8842146FA
:103DF0000648FCF7BDFBFCF78BFE288576E700BF85
:103E000010DB4245D7B3DD3FD7B3DDBF0000E1444F
:103E10002005002014494046FCF7ACFB3146FCF776
:103E2000A9FB4FF07C51FCF7ADFC07464146FCF77F
:103E30009FFB044601460C48FCF79AFBFCF768FE22
:103E4000A88431462046FCF793FB01460648FCF760
:103E50008FFBFCF75DFEE88439460348FCF788FBDE
:103E6000FCF756FE288541E70000E144002343614A
:103E70008161704730B585B01C4601600025456002
:103E80008560C260036107491846FCF77BFC02901D
:103E9000019400952B46044A0021044800F048F89C
:103EA00005B030BDCDCC4C3F000020413006002095
:103EB00038B50446FFF7F0FDFCF710FC1449FCF799
:103EC00061FC4FF06651FCF75DFC01462046FFF7B0
:103ED0000DFE104D2868FCF79FFA0BA3D3E90023D1
:103EE000FCF73CF9FCF7F0FA28600B4B0B4A1A6020
:103EF0004FF082412046FFF7B9FF2046FFF710FE42
:103F00002046FFF739FE38BDEC51B81E85EBB13FB6
:103F1000DB0FC9402C06002078060020920A863F5D
:103F200008B50248FFF7C4FF08BD00BF0006002027
:103F300098B1017042608360009BC360019B036184
:103F4000029B436100238363436303630362C36291
:103F50008362436243640364C363704770B50D4E6C
:103F60000D4D761BB61006D0002455F8043B0134E5
:103F70009847A642F9D1094E094D01F0BFFA761BC8
:103F8000B61006D0002455F8043B01349847A642E9
:103F9000F9D170BD2857000828570008305700088D
:103FA00028570008830730B548D0541E002A3FD058
:103FB0000346CAB201E0013C3AD303F8012B9D0746
:103FC000F9D1032C2DD9CDB245EA05250F2C45EAB0
:103FD000054536D9A4F1100222F00F0C03F1200E92
:103FE000E6444FEA121C03F1100242E9045542E98B
:103FF000025510327245F8D10CF1010214F00C0F89
:1040000003EB021204F00F0C13D0ACF1040323F005
:1040100003030433134442F8045B9342FBD10CF0D6
:1040200003042CB1CAB21C4403F8012B9C42FBD1FF
:1040300030BD64461346002CF4D1F9E7034614461C
:10404000BFE71A46A446E0E7024B13B1024800F06E
:1040500005B87047000000006940000800230146D1
:104060001A46184600F01AB838B5084B084D5B1BC5
:104070009C1007D0043B1D44013C55F80439984777
:10408000002CF9D1BDE8384001F03EBA34570008A1
:1040900030570008704700BF704700BF2DE9F04758
:1040A000DFF87CA00646DAF8000098460F469146F5
:1040B000FFF7F0FF1B4B1B68D3F8484124B365683A
:1040C0001F2D26DC5EB96B1C0235DAF80000636038
:1040D00044F82570FFF7E0FF0020BDE8F0870123DA
:1040E00004EB8501C1F88890D4F88821AB401A43CD
:1040F000022EC4F88821C1F80881E4D1D4F88C21BB
:104100001343C4F88C31DEE703F5A674C3F84841C5
:10411000D5E7DAF80000FFF7BFFF4FF0FF30DCE72C
:10412000380400204C55000810B5264C21F00043FF
:10413000A34286B021DD244A934209DD02460B46A4
:10414000FCF70AF802460B461046194606B010BDA9
:1041500002AA00F095F800F00300012814D002280C
:1041600026D0E0B1DDE90423DDE902010124009459
:1041700001F002F802460B46E6E70022002306B0F3
:10418000BDE8104000F0A8BADDE904230090DDE9A5
:10419000020100F0F1FF024601F10043D4E7DDE93E
:1041A0000423DDE9020100F097FA02460B46CBE753
:1041B000DDE90423DDE9020100F08EFA024601F197
:1041C0000043C1E7FB21E93FFFFFEF7F10B5294C1A
:1041D00021F00043A34286B020DD274A934209DD47
:1041E00002460B46FBF7B8FF02460B46104619463F
:1041F00006B010BD02AA00F043F800F00300012849
:1042000018D002282AD0F0B1DDE90423DDE902014B
:1042100000F062FA024601F10043E7E700240022C1
:104220000023009400F0A8FF02460B4610461946F2
:1042300006B010BDDDE90423DDE9020100F04CFA0F
:1042400002460B46D2E70124DDE90423DDE9020141
:10425000009400F091FF02460B46C7E70124DDE918
:104260000423DDE90201009400F086FF024601F11B
:104270000043BBE7FB21E93FFFFFEF7F00000000A9
:104280002DE9F04FDFF838C221F0004565450646BC
:1042900014468FB040F385808A4A0F46954226DC4B
:1042A0007DA3D3E90023002940F3C081FBF754FF2D
:1042B000854B80469D42894600F08A8078A3D3E9E9
:1042C0000023FBF749FF02460B464046C4E90023A2
:1042D0004946FBF741FF72A3D3E90023FBF73CFFFC
:1042E0000126C4E9020130460FB0BDE8F08F774ADD
:1042F000954240F38D80764A95425FDC4FEA25581F
:10430000A8F21648A5EB08518B46FCF7D3FDFCF745
:1043100071F802460B4630465946CDE90823FBF7B3
:104320001BFF00226B4BFCF713FC8B468246FCF70D
:10433000C1FD0546FCF75EF802460B46504659465D
:10434000CDE90A23FBF708FF0022624BFCF700FCD3
:1043500002460B46CDE90C2300220023FCF778FD32
:10436000002800F06181002D0CBF012302230225EB
:1043700059494246019108A82146009500F0D4FA17
:10438000002F0646AFDAD4E9000505F10041C4E983
:104390000001E168A26801F10043C4E9022376420A
:1043A000A1E700264FF000084FF00009C2E9000124
:1043B0003046C2E902890FB0BDE8F08F02460B46D5
:1043C000FBF7CAFE0026C4E90201C4E900018AE73E
:1043D00035A3D3E90023FBF7BFFE35A3D3E90023C0
:1043E00080468946FBF7B8FE02460B464046C4E9C4
:1043F00000234946FBF7B0FE2DA3D3E90023FBF7CA
:10440000ABFE0126C4E9020130460FB0BDE8F08FD3
:1044100000F074FF28A3D3E9002380468946FCF707
:1044200097FB00222D4BFBF799FEFCF743FD064658
:10443000FBF7E0FF18A3D3E9002382468B46CDE9C2
:1044400004ABFCF785FB02460B4640464946FBF7AA
:1044500083FE13A3D3E90023CDE902015046594658
:10446000FCF776FB1F2E804689463BDC1C4B721EF8
:1044700053F82230AB4235D002460B46DDE902014B
:10448000FBF76AFE02460B4682468B46C4E90023D0
:10449000AEE000BFAFF3008000004054FB21F93FC5
:1044A0003163621A61B4D03D0000601A61B4D03D3E
:1044B0007370032E8A19A33B83C8C96D305FE43F34
:1044C000FB21E93F7BD90240FB21F93FFB21394128
:1044D000FFFFEF7F00007041D05500080000E03F73
:1044E000505500082B1507934246DDE902014B4663
:1044F000FBF732FEC1F30A53C3EB1555102D8B4663
:10450000824671DD68A3D3E90023DDE90401FCF7ED
:104510001FFBDDE902AB8046894642464B465046CA
:104520005946FBF719FE02460B465046594692463D
:104530009B46FBF711FE42464B46FBF70DFE5CA384
:10454000D3E9002380468946DDE90401FCF700FB3E
:1045500042464B46FBF700FE804689465046594688
:1045600042464B46CDE902ABFBF7F6FD079AC1F395
:104570000A53D31A312B8B46824635DD4EA3D3E93D
:104580000023DDE90401FCF7E3FADDE902AB804634
:10459000894642464B4650465946FBF7DDFD0246EA
:1045A0000B465046594692469B46CDE902ABFBF777
:1045B000D3FD42464B46FBF7CFFD41A3D3E9002391
:1045C00080468946DDE90401FCF7C2FA42464B46C3
:1045D000FBF7C2FD804689465046594642464B4647
:1045E000FBF7BAFD8B46824652465B46C4E9002380
:1045F000DDE9020152465B46FBF7AEFD42464B4603
:10460000FBF7AAFD02460B46002FC4E90223BFF6C2
:104610006AAE0BF1004301F10041A0606360E1600C
:104620007642C4F800A05EE60323A0E6FBF796FD01
:10463000274B80469D42894616D023A3D3E9002309
:10464000FBF78CFD02460B464046C4E90023494671
:10465000FBF782FD1CA3D3E90023FBF77FFD4FF09E
:10466000FF36C4E902013EE60FA3D3E90023FBF7BE
:1046700075FD0FA3D3E9002380468946FBF76EFD45
:1046800002460B464046C4E900234946FBF764FD59
:1046900007A3D3E90023FBF761FD4FF0FF36C4E920
:1046A000020120E6AFF300800000601A61B4D03D43
:1046B0007370032E8A19A33B0000002E8A19A33BB6
:1046C000C14920259A837B393163621A61B4D03D98
:1046D000FB21F93F000000002DE9F04F21F00046DA
:1046E000B6F1795F92469B460C46054685B06DDA79
:1046F000FCF7E0FB002800F0EB802A462346284622
:104700002146FCF725FA76A3D3E9002380468946A3
:10471000FCF71EFA74A3D3E90023FBF71FFD424602
:104720004B46FCF715FA72A3D3E90023FBF714FDFF
:1047300042464B46FCF70CFA6FA3D3E90023FBF784
:104740000DFD42464B46FCF703FA6DA3D3E9002367
:10475000FBF702FD42464B46FCF7FAF96AA3D3E9A0
:104760000023FBF7FBFC42464B46FCF7F1F9CDE991
:104770000001002240464946654BFCF7E9F9DDE9B6
:10478000002306460F4640464946FCF7E1F9A84695
:10479000A14652465B4604460D4640464946FCF754
:1047A000D7F902460B4620462946FBF7D5FC0246C0
:1047B0000B4630463946FBF7CFFC02460B4600203D
:1047C0005449FBF7C9FC05B0BDE8F08F02460B4623
:1047D000FCF7BEF942A3D3E9002380468946FCF7E3
:1047E000B7F941A3D3E90023FBF7B8FC42464B4697
:1047F000FCF7AEF93EA3D3E90023FBF7ADFC42463C
:104800004B46FCF7A5F93CA3D3E90023FBF7A6FC34
:1048100042464B46FCF79CF939A3D3E90023FBF74A
:104820009BFC42464B46FCF793F937A3D3E90023A0
:10483000FBF794FC4B464246FCF78AF9364BCDE930
:1048400000019E4295DD354B00229E423ADCA6F5E2
:10485000001300202F4916461F46FBF77DFCCDE9CB
:104860000201002240464946294BFCF771F93246C5
:104870003B46FBF771FCDDE9002306460F46404648
:104880004946FCF765F9A846A14652465B460446F0
:104890000D4640464946FCF75BF902460B4620466A
:1048A0002946FBF759FC02460B4630463946FBF7D2
:1048B00053FC02460B46DDE90201FBF74DFC05B057
:1048C000BDE8F08F164B0026CDE90223154FC8E74F
:1048D0000020104905B0BDE8F08F00BFAFF30080A5
:1048E000D43888BEE9FAA8BDC4B1B4BD9EEE213E5D
:1048F000AD529C804F7E923E9015CB19A001FA3E9E
:104900007751C1166CC1563F4C5555555555A53F6D
:104910000000E03F0000F03F3233D33F0000E93FAA
:104920000000E73F0000D23F2DE9F04FADF5197DC3
:10493000B84CA29D089354F82540013B12F1140F86
:10494000074605940B910393C0F24283B249D31EEC
:1049500081FB0301DB17C3EBA10307930133A3EB37
:104960008303DB00D3180693079A039BD61A059A94
:1049700012EB03091BD409F1010900240025DDF81D
:104980008CA2B1440DF1800808E05AF82600FBF72C
:1049900031FD01364E45E8E8020108D0002EF4DA78
:1049A0002046294601364E45E8E80201F6D1059B2E
:1049B000002BC0F2BC83089B20AA02EBC30ADA00DA
:1049C0000292059AA7F108011A44DDF80C900491AF
:1049D0000DF5E07B019201EBC308039B002BC0F2B5
:1049E000AE81574600240025049E77E90223F6E9AC
:1049F0000201FCF7ADF802460B4620462946FBF7BC
:104A0000ADFB464504460D46EFD1019B09F1010976
:104A10009945EBE802450AF1080ADED1049BDDF86E
:104A200008B00BAA9B44059B02EB83020A920CAAD6
:104A3000019302EB8303083B0993019A98AB03EBC4
:104A4000C203002A53E9284529DD0DF5E07A0DF16E
:104A500030090AEBC2080022704B20462946FCF7B9
:104A600077F8FCF727FAFBF7C5FC00226C4B0646EB
:104A70000F46FCF76DF802460B4620462946FBF729
:104A80006BFBFCF717FA78E9022349F8040B394667
:104A90003046FBF763FBD04504460D46DBD1DDF81D
:104AA0001890204629464A4600F0AAFC00224FF002
:104AB0007F5304460D46FCF74BF800F025FC00221E
:104AC000584BFCF745F802460B4620462946FBF7B3
:104AD00043FB0D460446FCF7EDF98046FBF78AFCE4
:104AE0000B46024629462046FBF736FB4B46002B79
:104AF00006460F4640F39880019A0CA9013A51F8F6
:104B00002250C9F1180345FA03F101FA03F3ED1A33
:104B10000CAB43F82250C9F117031D41002D884406
:104B200000F38C800022002330463946FCF790F9D0
:104B3000002800F05482019B059A03F1FF3A524588
:104B400010DC002203F18043013B0CA90A9801EB21
:104B5000830353F80419834242EA0102F9D1002A7F
:104B600040F0F080059B0CAA013B52F82330002B4B
:104B700040F0E0800123099A52F80419013300291A
:104B8000FAD0019AD3180293531C9946DDF8048099
:104B9000089A9044079A02EB030A0AF1804AA39A02
:104BA0000AF1FF3A02EB8A0A20AA02EBC80870AAAF
:104BB00002EBC30301935AF8040FFBF71BFC039BA2
:104BC0004746002B08F1080848E902011FDB0024D2
:104BD0000025049E083F01E077E80201F6E9022380
:104BE000FBF7B6FF02460B4620462946FBF7B6FA0E
:104BF0005E4504460D46EFD1019B09F10109E3E84A
:104C000002450193029B9945D5DD019315E70024E8
:104C10000025F1E718570008ABAAAA2A0000703E49
:104C200000007041000020406BD1019B0CAA013BA9
:104C300052F82350ED15002D7FF774AF019B08F15A
:104C40000108002B40F3C9810C9C002C51D1019B21
:104C5000012B20D001220CAB53F8044F002C4BD079
:104C6000531C0CA9C4F1807441F822400199994267
:104C700010DD0CAC0CAA52F823206FF07F4004EB3F
:104C8000830304EB810100E01A68821A43F8042BC5
:104C90008B42F9D10124069B002B0EDD012B00F085
:104CA0008C81022B09D1019B0CA95A1E0CAB53F825
:104CB0002230C3F3150341F82230022D7FF432AFC6
:104CC00032463B4600207A49FBF746FA06460F4635
:104CD000002C3FF427AF069A0020754900F090FBA6
:104CE00002460B4630463946FBF736FA06460F4673
:104CF00018E701230022B4E7019901328A42ABD1BF
:104D0000C9E700226B4BFCF7C1F8054600283FF4C9
:104D100009AF019B08F10108002BC8BF022593DCF5
:104D200032463B4600206249FBF716FA022506464A
:104D30000F46F7E6019B01339946029326E70024CC
:104D4000002562E6069B0395A3F118020CAB53F80D
:104D50002A30CDF81C80069273B9019B0CA903F18F
:104D60008043023B01EB830353F804190AF1FF3A35
:104D7000183A0029F8D006920020069A4C4900F013
:104D80003FFBBAF1000F04460D46C0F2D7814FF049
:104D9000000870AB03EBCA0B0CAA0AF101030693DF
:104DA00002EB8306DFF810914FEACA0304930BF17C
:104DB000080756F8040DFBF71DFB22462B46FBF7B0
:104DC000C7FE4B4667E90201424620462946FBF7EB
:104DD000BFFE0CAB9E4204460D46EAD148ABCDE97E
:104DE000013ADDF814A04FF00009BAF1000F2CDBF6
:104DF0002DA3D3E900235F46002600240025DFF819
:104E0000BC8003E0B14510DBF8E80223F7E80201BB
:104E1000FBF79EFE02460B4620462946FBF79EF90D
:104E20000136B24504460D46ECDA019B029A03EBCB
:104E3000C9039145C3E90045ABF1080B09F1010332
:104E400006D0BAF1000F9946D2DA00240025ECE72B
:104E5000A29BDDF808A0022B32DC002B00F3F280CD
:104E600018D1A29B049D1C46019E08353544184666
:104E700075E902232146FBF771F9AE4203460C4661
:104E8000F5D1039A0AB104F10044184621460B9B60
:104E9000C3E90001079B03F007000DF5197DBDE88C
:104EA000F08F00BFAFF3008000000040FB21F93F0E
:104EB0000000F03F0000E03F0000703EE0560008B8
:104EC000A29B032BE6D1BAF1000F00F04D81019BAC
:104ED000049A13449B46D3E900455BE902672046E8
:104EE000294632463B46FBF739F9A046A946044617
:104EF0000D4622462B4630463946FBF72DF94B46E8
:104F00004246FBF72BF9CBE900016BE90245019B17
:104F10005B45E2D1BAF1010F40F32681049B019A6F
:104F20000DF5947B13449A46D3E9004502935AE960
:104F300002672046294632463B46FBF70FF9A0465A
:104F4000A94604460D4622462B4630463946FBF715
:104F500003F942464B46FBF701F9CAE900016AE949
:104F60000245D345E3D100231E46029C019A083432
:104F700002F11005184674E902233146FBF7EEF8FA
:104F8000A54203460E46F5D1039A002A40F0A480BC
:104F9000184631460B9C019BC4E90401D3E9022366
:104FA000C4E90223DDE94823C4E90023079B03F099
:104FB00007000DF5197DBDE8F08F019B0CA95A1E65
:104FC0000CAB53F82230C3F3160341F8223074E6D9
:104FD00000216FF017030791C4E400245BE6069CF0
:104FE0003046394662420395CDF81C8000F008FA3D
:104FF00000225F4B06460F46FBF748FF002861D0B2
:1050000000225C4B1834304639460694FBF7A0FD6D
:10501000FBF750FF0446FBF7EDF90022544BFBF77A
:1050200097FD0B46024639463046FBF795F8FBF7ED
:1050300041FF019D0CAB05F1010A43F8250043F83F
:105040002A4099E600263446019F069B07EBC305DC
:10505000304675E902232146FBF780F8AF42064649
:105060000C46F5D1039B002B50D1304621462346F8
:105070000B9C3246C4E90001DDE94801FBF76CF8FE
:10508000BAF1000F03460E4610DD012448AD184664
:10509000F5E902233146FBF761F80134A2450346E6
:1050A0000E46F4DA039A0AB106F100461846314674
:1050B0000B9BC3E90201079B03F007000DF5197D67
:1050C000BDE8F08F30463946FBF7F4FE019B0CAA91
:1050D0009A4642F823004FE60B9D019C06F10046DC
:1050E0006E6126462068A26864682B6104F1004165
:1050F000F468C5E9000104F10043C5E90223079BF8
:1051000003F007000DF5197DBDE8F08F0B9804F151
:1051100000410660324623464160DDE94801FBF765
:105120001BF8BAF1000F03460E46AEDCBCE7A7F150
:1051300008030493089BDB0002936FE4A29B022BFD
:1051400006DC002B0DDC7FF4A5AEA29B1C4698E686
:10515000A29B032B7FF49EAE002348AA1E46019219
:1051600012E7002634467DE700231E460CE700BF09
:10517000000070410000703E2DE9F04F85B0CDE990
:10518000022321F00043B3F1795F8246019104DAF2
:10519000FBF790FE002800F08E80019B52461946D6
:1051A0005046FBF7D5FC04460D46019B22461946A6
:1051B00050462B46FBF7CCFC43A3D3E9002306461D
:1051C0000F4620462946FBF7C3FC41A3D3E9002341
:1051D000FAF7C2FF22462B46FBF7BAFC3EA3D3E9FF
:1051E0000023FAF7BBFF22462B46FBF7B1FC3CA39A
:1051F000D3E90023FAF7B0FF22462B46FBF7A8FCC1
:1052000039A3D3E90023FAF7A9FF0E9B804689460C
:10521000BBB3DDE902010022374BFBF799FC4246A4
:105220004B468046894630463946FBF791FC02469C
:105230000B4640464946FAF78FFF22462B46FBF7BE
:1052400087FCDDE90223FAF787FF29A3D3E90023CE
:1052500004460D4630463946FBF77AFC02460B46BB
:1052600020462946FAF77AFF02460B465046019936
:10527000FAF772FF82468B465046594605B0BDE8A4
:10528000F08F02460B4620462946FBF761FC18A327
:10529000D3E90023FAF760FF32463B46FBF758FCA0
:1052A0005246019BFAF75AFF82468B4650465946B2
:1052B00005B0BDE8F08FDDF804B05046594605B0A2
:1052C000BDE8F08FAFF300807CD5CF5A3AD9E53DE9
:1052D000EB9C2B8AE6E55A3E7DFEB157E31DC73EA7
:1052E000D561C119A0012A3FA6F810111111813F03
:1052F000495555555555C53F0000E03F21F0004147
:10530000704700BF00000000C1F30A52F8B5A2F2D6
:10531000FF35132D0B4684460C46064630DC002D27
:105320001EDB354F2F4101EA0702024315D030A39F
:10533000D3E90023FAF712FF00220023FBF7B0FDA8
:1053400048B1002C04DA4FF4801343FA05F52C44DD
:10535000002624EA07042346B44660461946F8BDF1
:1053600023A3D3E90023FAF7F9FE00220023FBF779
:1053700097FD0028EFD0002C24DB00263446EAE716
:10538000332D08DDB5F5806FE7D10246FAF7E6FE6A
:1053900084460B46E1E74FF0FF37A2F21342D740B5
:1053A0000742DAD012A3D3E90023FAF7D7FE00228E
:1053B0000023FBF775FD0028CDD0002C0BDB26EA7F
:1053C0000706C8E724F000430C4A1E43002E18BF0E
:1053D00014460026BFE7142D08D00123C5F134057B
:1053E00003FA05F5AE1928BFE418E8E70134E6E74B
:1053F0009C7500883CE4377EFFFF0F000000F0BF83
:10540000C1F30A5370B58C4604460D4616467BBB65
:10541000034621F0004C5CEA030328D0324B002203
:10542000FBF796FB314B04469E420D461ADB8C4639
:10543000C1F30A53363B40F2FE723344934220DC00
:10544000002B3EDC13F1350F2CDA4CF250339E4228
:1054500017DC05F0004343F0D27141F4B731244822
:1054600041F01F011CA3D3E90023FBF771FB70BDC2
:1054700040F2FF7E7345DED102460B46FAF76EFE20
:1054800070BD05F0004343F0FC4141F45F1141F46D
:10549000105113A3D3E90023164841F03C01FBF758
:1054A00057FB70BD2CF0FF4C03F136012CF4E00CDF
:1054B0004CEA01550022204629460F4BFBF748FBDA
:1054C00070BD2CF0FF4C2CF4E00C20464CEA03514C
:1054D00070BD00BFAFF3008059F3F8C21F6EA50185
:1054E0009C7500883CE4377E00005043B03CFFFFD1
:1054F00059F3F8C29C7500880000903CF8B500BFD5
:10550000F8BC08BC9E467047F8B500BFF8BC08BCA4
:045510009E467047FC
:105518000008000000080000000000000000000073
:105528000102030406070809000000000102030441
:1055380002030405060708090A0B0C0D0E0F1010CC
:105548000102000010000020FB21F93FFB21094067
:105558007CD91240FB2119407A6A1F407CD922402D
:10556800BBFD2540FB2129403A462C407A6A2F4052
:105578005C4731407CD932409C6B3440BBFD3540A0
:10558800DB8F3740FB2139401BB43A403A463C4058
:105598005AD83D407A6A3F404C7E40405C47414083
:1055A8006C1042407CD942408CA243409C6B4440E2
:1055B800AC344540BBFD4540CBC64640DB8F474039
:1055C800EB584840FB21494083F9A200444E6E0045
:1055D800FC291500D1572700DD34F50062DBC00037
:1055E8003C999500419043006351FE00BBDEAB003F
:1055F800B761C5003A6E2400D24D42004906E0006A
:1056080009EA2E001C92D100EB1DFE0029B11C00F6
:10561800E83EA700F535820044BB2E009CE98400D3
:10562800B4267000417E5F00D6913900538339005B
:105638009CF439008B5F840028F9BD00F81F3B00FB
:10564800DEFF97000F980500112FEF000A5A8B0014
:105658006D1F6D00CF7E360009CB2700464FB7007F
:105668009E663F002DEA5F00BA277500E5EBC7008C
:105678003D7BF100F739070092528A00FB6BEA0084
:105688001FB15F00085D8D00300356007BFC4600AB
:10569800F0AB6B0020BCCF0036F49A00E3A91D00E4
:1056A8005E619100081BE60085996500A0145F0003
:1056B8008D40680080D8FF0027734D000606310032
:1056C800CA561500C9A873007BE260006B8CC00045
:1056D80000000040FB21F93F000000002D44743E0B
:1056E800000000809846F83C0000006051CC783BF0
:1056F80000000080831BF0390000004020257A3824
:10570800000000802282E336000000001DF36935A6
:105718000200000003000000040000000600000072
:085728004940000835010008AA
:04573000110100085B
:105734000024F4000100000010000000000000003C
:1057440000000000FC02002064030020CC030020C1
:105754000000000000000000000000000000000045
:105764000000000000000000000000000000000035
:105774000000000000000000000000000000000025
:105784000000000000000000000000000000000015
:105794000000000000000000000000000000000005
:1057A40000000000000000000000000000000000F5
:1057B40000000000000000000000000000000000E5
:1057C40000000000000000000000000000000000D5
:1057D40000000000000000000000000000000000C5
:1057E40000000000000000000100000000000000B4
:1057F4000E33CDAB34126DE6ECDE05000B00000079
:105804000000000000000000000000000000000094
:105814000000000000000000000000000000000084
:105824000000000000000000000000000000000074
:105834000000000000000000000000000000000064
:0C5B640000000000000000007C06002093
:0400000508001625B4
:00000001FF
